S01300005450312D477275706F31322E737265639F
S11300000C9434000C943E000C943E000C943E007E
S11300100C943E000C943E000C943E000C943E0064
S11300200C943E000C943E000C943E000C943E0054
S11300300C943E000C943E000C943E000C943E0044
S11300400C943E000C943E000C943E000C943E0034
S11300500C943E000C943E000C943E000C943E0024
S11300600C943E000C943E0011241FBECFEFD8E048
S1130070DEBFCDBF0E947D000C94B8000C9400003C
S113008026B130E002C0359527958A95E2F720FD28
S113009002C081E0089580E00895FC0190819130D0
S11300A049F4662339F081E0DA018C938081880F6A
S11300B080830895903859F4662331F0DA011C9254
S11300C0808186958083089581E080830895DA0194
S11300D08C91882319F0990F9083089596959083B5
S11300E008958FEF8AB984B1816084B987B18C7F18
S11300F087B988B1836088B90895CF93DF9300D01E
S1130100CDB7DEB70E94710081E089838A838BB901
S113011010E0F12C00E0123058F0AE014E5F5F4F5A
S11301206F2DCE0101960E944D0089818BB910E09C
S113013080E00E944000002379F081110DC091E01D
S1130140F92621F090E899831A8203C091E09983FB
S11301509A8399819BB910E01F5F2FEF30E792E0FB
S1130160215030409040E1F700C00000082FD3CF69
S1070170F894FFCF2D
S9030000FC
