:100000000C9434000C9451000C9451000C94510049
:100010000C9451000C9451000C9451000C9451001C
:100020000C9451000C9451000C9451000C9451000C
:100030000C9451000C9451000C9451000C945100FC
:100040000C9451000C9451000C9451000C945100EC
:100050000C9451000C9451000C9451000C945100DC
:100060000C9451000C94510011241FBECFEFD8E026
:10007000DEBFCDBF11E0A0E0B1E0EAEEF2E002C0E9
:1000800005900D92A230B107D9F721E0A2E0B1E0CE
:1000900001C01D92A830B207E1F70E9410010C9434
:1000A00073010C9400008FEF8AB984B1816084B928
:1000B00087B18C7F87B988B1836088B910920701B6
:1000C0001092050110920601089526B130E002C099
:1000D000359527958A95E2F720FD02C081E00895C5
:1000E00080E0089590E022C0882384F425B1216047
:1000F00025B9000000000000000000000000000022
:100100000000000025B12E7F25B90EC025B1216069
:1001100025B900000000000025B12E7F25B90000A0
:100120000000000000000000880F9F5F983008F476
:10013000DBCF0895CF93DF93809107018823D1F01F
:10014000C0E0D0E037C080E00E94720080E00E94F2
:100150007200809105010E94720080E00E9472008E
:100160008091050180950E94720080E00E947200DB
:10017000219602C0C0E0D0E0C430D10524F38091C4
:10018000050180958093050121C02091060188E03A
:1001900090E0821B9109C817D90711F48FEF01C0B5
:1001A00080E00E94720080E00E94720080E00E9465
:1001B00072002196C830D10544F3809106018F5F0B
:1001C00080930601893010F010920601DF91CF91E3
:1001D000089580910101813039F491E090930001FC
:1001E000880F809301010895803871F49091030184
:1001F000992331F0109200018695809301010895B2
:1002000081E080930101089590910001992321F0EC
:10021000880F8093010108958695809301010895C8
:100220000E945300809101018BB910E0D0E08091D1
:100230000201843120F00E94E900109202018091B5
:1002400004018E3120F00E949A001092040180E097
:100250000E946500C82FDD23D1F0811118C0909154
:10026000030181E0892780930301882331F080E82E
:10027000809301011092000105C081E0809301018B
:1002800080930001809101018BB91092020181E0FD
:100290000E946500112389F081110FC02091070190
:1002A00091E0922790930701992319F0109205018C
:1002B00002C01092060110920401909102019F5F0A
:1002C00090930201909104019F5F9093040190919B
:1002D00001019BB9EFE1FEE43197F1F700C00000A6
:0A02E000182FDC2FA4CFF894FFCFF5
:0202EA00010110
:00000001FF
