:100000000C9434000C9446000C9446000C9446006A
:100010000C9446000C9446000C9446000C94460048
:100020000C9446000C9446000C9446000C94460038
:100030000C9446000C9446000C9446000C94460028
:100040000C9446000C9446000C9446000C94460018
:100050000C9446000C9446000C9446000C94460008
:100060000C9446000C94460011241FBECFEFD8E03C
:10007000DEBFCDBF21E0A0E0B1E001C01D92A33002
:10008000B207E1F70E94D6000C94F6000C94000031
:1000900027E030E037C0482F50E0022E02C05595CF
:1000A00047950A94E2F740FF16C095B1916095B963
:1000B0000000000000000000000000000000000040
:1000C00000000000000095B19E7F95B9000000007F
:1000D0000000000015C095B1916095B900000000C6
:1000E0000000000095B19E7F95B90000000000005F
:1000F0000000000000000000000000000000000000
:100100002150310933230CF0C6CF0895CF93DF93EC
:1001100080910201811124C010920101C0E0D0E061
:1001200016C0809100010E94480080E00E944800B3
:1001300080E00E94480080E00E9448008091000119
:1001400080950E94480080E00E9448002196C430BB
:10015000D1053CF38091000180958093000123C07C
:1001600010920001C0E0D0E012C08091010190E047
:10017000C817D90711F48FEF01C080E00E94480032
:1001800080E00E94480080E00E9448002196C8302C
:10019000D1055CF3809101018F5F8093010188306C
:1001A00010F010920101DF91CF9108958FEF8AB97D
:1001B00084B1816084B987B18C7F87B988B183604D
:1001C00088B91092020110920001109201010E9460
:1001D000860085B18E7F85B92FEF82E597E02150AB
:1001E00080409040E1F700C00000F1CFF894FFCFCD
:00000001FF
