S01300005450312D477275706F31322E737265639F
S11300000C9434000C943E000C943E000C943E007E
S11300100C943E000C943E000C943E000C943E0064
S11300200C943E000C943E000C943E000C943E0054
S11300300C943E000C943E000C943E000C943E0044
S11300400C943E000C943E000C943E000C943E0034
S11300500C943E000C943E000C943E000C943E0024
S11300600C943E000C943E0011241FBECFEFD8E048
S1130070DEBFCDBF0E9464000C9482000C9400008B
S113008091E02FEF31EE44E0215030404040E1F761
S113009000C00000813029F4589991E05F9B08C0AA
S11300A006C02BB1211104C021E02BB901C090E09E
S11300B0913021F42BB1220F2BB9E3CF9111E1CF71
S11300C02BB126952BB9DDCF9FEF9AB984B181600E
S11300D084B99BB92FEF81EE94E021508040904089
S11300E0E1F700C000001BB82FEF81EE94E021502F
S11300F080409040E1F700C0000081E08BB980E0CF
S10B01000E944000F894FFCFB7
S9030000FC
