:100000000C9434000C9451000C9451000C94510049
:100010000C9451000C9451000C9451000C9451001C
:100020000C9451000C9451000C9451000C9451000C
:100030000C9451000C9451000C94BA030C94510090
:100040000C9451000C9451000C9410030C9439033F
:100050000C9451000C9451000C9451000C945100DC
:100060000C9451000C94510011241FBECFEFD8E026
:10007000DEBFCDBF11E0A0E0B1E0EEE2F8E002C0EB
:1000800005900D92A830B107D9F722E0A8E0B1E0C1
:1000900001C01D92A93FB207E1F70E9479030C94B9
:1000A00015040C94000040916D0150E09A012F5FFF
:1000B0003F4F2F773078332334F4215031092068B3
:1000C0003F6F2F5F3F4F90916C01921741F0FA0103
:1000D000E259FE4F808320936D0181E0089580E016
:1000E000089520916D0190916C0181E0291380E0C9
:1000F00008951F93CF93DF93EC0110E006C0219683
:100100000E945300882359F01F5F88818111F7CF27
:100110000E947100811103C081E080936B01812FE7
:10012000DF91CF911F910895CF9388E091E00E94D5
:1001300079008DE00E94530080E091E00E947900F8
:10014000C0E008C0EC2FF0E0E55BFE4F80810E942C
:100150005300CF5F80914A01C817A0F381E08093DC
:100160006B01CF910895CF93DF93EC010E94710052
:10017000811109C0E0916C01F0E0E259FE4F8081ED
:10018000888381E001C080E0DF91CF910895CF9313
:10019000DF93EC010E947100811115C080916C0108
:1001A00090E0FC01E259FE4F2081288301968F7771
:1001B0009078992324F4019780689F6F019680932B
:1001C0006C0181E001C080E0DF91CF9108959091B2
:1001D0004A01903251F0E92FF0E0E55BFE4F808359
:1001E0009F5F90934A0181E0089580E00895909187
:1001F0004A0181E0911180E00895CF93DF93EC01F3
:100200000E94F70081110CC0E0914A01E150E09397
:100210004A01F0E0E55BFE4F8081888381E001C008
:1002200080E0DF91CF910895CF93DF93E8E0F1E094
:1002300001900020E9F73197E850F140D0914A0150
:10024000ED0FD5E0DE0FC0E004C088E00E9453004F
:10025000CF5F2C2F30E08D2F90E0019628173907C3
:10026000A4F381E080936B01DF91CF9108951F93F8
:10027000CF93DF931F92CDB7DEB7182F883011F1DF
:100280008D3071F50E94F70081113AC00E94E7009D
:100290008823B1F18091290181110AC06BE471E0DA
:1002A0008AE291E00E94FF0381E08093290103C06C
:1002B00081E0809328010E94140110924A010E945B
:1002C00094001EC00E94F70081111AC0CE01019651
:1002D0000E94FD008823A1F088E00E94040310C062
:1002E00080914A018F3148F4812F0E9404038823B2
:1002F00039F0812F0E94E70003C081E0809328013C
:100300000F90DF91CF911F910895CF93DF931F92AC
:10031000CDB7DEB70E94E30281110AC00DC0CE0145
:1003200001960E94F102882319F089810E94370109
:100330000E94EA028111F3CF80916B0181110EC0FE
:1003400016C0CE0101960E94B30089810E94040369
:10035000882341F0CE0101960E94C7000E947100DF
:10036000882379F30E947100811110926B010F9024
:10037000DF91CF910895CF93DF93EC010E94140198
:1003800040E250E0BE0188E091E00E940604109235
:1003900027010E94940081E0DF91CF910895CF93CF
:1003A000DF93EA019B01AC0160E875E280E090E038
:1003B0000E94A502CE010E94BB01DF91CF9108955A
:1003C000809129010895CF93C0912901CC2311F187
:1003D0006623E9F00097E9F0EAE2F1E001900020FD
:1003E000E9F73197EA52F1406E1730F41092290183
:1003F000FC011082C0E00EC0FF27AF014F5F5F4FCE
:100400006AE271E00E9406041092290103C0C0E074
:1004100001C0C0E08C2FCF9108952091740230E08C
:100420002F5F3F4F2F773078332334F42150310939
:1004300020683F6F2F5F3F4F90917502921305C068
:1004400081E08093730280E00895E0917402F0E00F
:10045000EA58FD4F80832093740281E00895209133
:1004600074029091750281E0291380E00895CF9382
:10047000DF93EC010E942F02811117C0E0917502F9
:10048000F0E0EA58FD4F808188838091750290E00A
:1004900001968F779078992324F4019780689F6F55
:1004A00001968093750281E001C080E0DF91CF91D9
:1004B00008952091F00130E02F5F3F4F2F77307883
:1004C000332334F42150310920683F6F2F5F3F4FB1
:1004D0009091F101921305C081E08093EF0180E0DB
:1004E0000895E091F001F0E0EE50FE4F80832093FC
:1004F000F00181E008952091F0019091F10181E0F7
:10050000291380E00895CF93DF93EC010E947B02D2
:10051000811117C0E091F101F0E0EE50FE4F8081B3
:1005200088838091F10190E001968F7790789923EC
:1005300024F4019780689F6F01968093F10181E018
:1005400001C080E0DF91CF910895CF92DF92EF92CA
:10055000FF920F931F936B017C01CA01B9019701B0
:100560008601000F111F221F331F000F111F221FB2
:10057000331FA9019801220F331F441F551F220F5B
:10058000331F441F551F0E94DD0321503109109273
:10059000C5002093C4001092730210927202109250
:1005A000EE01E0ECF0E080818D7F808386E0809337
:1005B000C20088E98093C1001F910F91FF90EF90D6
:1005C000DF90CF900895F894809172021092720299
:1005D00078940895F8940E942F02789491E08927E6
:1005E0000895CF93DF93EC01F8940E942F028823A3
:1005F00019F0789480E005C0CE010E94370278940B
:1006000081E0DF91CF910895F8940E9459028823E8
:1006100029F0E1ECF0E09081906290837894089565
:100620001F920F920FB60F9211242F933F934F9367
:100630005F936F937F938F939F93AF93BF93EF934A
:10064000FF938091C6000E940D0281E080937202A8
:10065000FF91EF91BF91AF919F918F917F916F919A
:100660005F914F913F912F910F900FBE0F901F9070
:1006700018951F920F920FB60F9211242F933F934C
:100680004F935F936F937F938F939F93AF93BF939A
:10069000EF93FF93CF93DF931F92CDB7DEB70E9406
:1006A0007B0281110DC0CE0101960E948302882336
:1006B00061F089818093C60081E08093EE0105C0DE
:1006C000E1ECF0E080818F7D80830F90DF91CF910E
:1006D000FF91EF91BF91AF919F918F917F916F911A
:1006E0005F914F913F912F910F900FBE0F901F90F0
:1006F0001895CF93DF93CDB7DEB7C054D1090FB6AD
:10070000F894DEBF0FBECDBF46E051E060E074E27A
:1007100084EF90E00E94CF010E94B003789480E2C1
:1007200090E09A838983FE0133968EE3DF011D9268
:100730008A95E9F70E9485018091F802882331F0BB
:100740001092F802CE0101960E94BB010E94E001C6
:10075000882381F360E4CE0101960E94E301EACF91
:1007600082E084BD93E095BD99EF97BD80936E00C4
:10077000789408951F920F920FB60F9211242F9321
:100780008F939F938091F6029091F7020196909338
:10079000F7028093F602883E934038F01092F702F9
:1007A0001092F60281E08093F8029F918F912F9131
:1007B0000F900FBE0F901F901895A1E21A2EAA1B42
:1007C000BB1BFD010DC0AA1FBB1FEE1FFF1FA21701
:1007D000B307E407F50720F0A21BB30BE40BF50BFE
:1007E000661F771F881F991F1A9469F76095709587
:1007F000809590959B01AC01BD01CF010895FB014F
:10080000DC0101900D920020E1F70895FB01DC016D
:100810004150504048F001900D920020C9F701C0AE
:0E0820001D9241505040E0F70895F894FFCF2C
:08082E00434D443E2000480048
:00000001FF
