S01300005450332D477275706F31322E737265639D
S11300000C9485000C94A2000C94A2000C94A20001
S11300100C94A2000C94A2000C94A2000C94A200D4
S11300200C94A2000C94A2000C94A2000C94A200C4
S11300300C94A2000C94A2000C9469090C94A200E4
S11300400C94A2000C94A2000C94F6060C941F07C6
S11300500C94A2000C94A2000C94A2000C94A20094
S11300600C9498080C94A200B9084509450945095F
S11300704509450945094509B90845094509450999
S11300804509450945094509CD0845094509450975
S11300904509450945094509F6084509450945093C
S11300A04509450945094509CD0845094509450955
S11300B04509450945094509F6084509450945091C
S11300C04509450945094509FA0845094509450908
S11300D045094509450945090609450945094509EB
S11300E04509450945094509F608450945094509EC
S11300F045094509450945091209450945094509BF
S11301004509450945094509330911241FBECFEFA7
S1130110D8E0DEBFCDBF12E0A0E0B1E0E4EAF9E14F
S113012002C005900D92AC37B107D9F723E0ACE7D4
S1130130B2E001C01D92A43EB207E1F70E94590942
S11301400C94D00C0C940000813091F028F0823093
S113015031F0833039F009C081E091E008958FE0F7
S113016091E0089587E191E0089586E291E0089591
S113017084E091E00895882319F0813039F003C0B8
S113018081E091E0089586E291E0089582E391E0B0
S11301900895FC019081975081E09C3008F080E044
S11301A00895662339F09CEE980F81E09B3040F06F
S11301B080E0089591EF980F81E0983008F080E096
S11301C00895662339F09EEC980F81E0953140F054
S11301D080E0089594EC980F81E0953108F080E078
S11301E00895FF920F931F93CF93DF93CDB7DEB79C
S11301F0A3970FB6F894DEBF0FBECDBF8C0149E0C4
S113020050E06CE371E00E94BB09892B09F095C0B2
S1130210D8011996FD0101900020E9F73197EA1BF6
S1130220FB0B389738F0F80183858A3319F48685F7
S11302308A3329F086E491E00E94A305E3C0F80123
S1130240818590ED980F9A30C8F422852033B0F060
S11302502A33A0F44485403388F04A3378F4558532
S1130260503360F05A3350F43785303338F03A3332
S113027028F46089603310F06A3328F087E591E050
S11302800E94A305BFC090E0C097880F982F990FD4
S1130290990F890F280F10ED120F842F90E0C0974B
S11302A0880F982F990F990F890F580F00ED050F9C
S11302B0832F90E0C097880F982F990F990F890F7B
S11302C0680F0F2EF0EDFF2EF02DF60E183128F4E6
S11302D00C3318F4FBE3FF1528F487E591E00E9442
S11302E0A30590C019A30AA3FBA2CE0181960E9484
S11302F017048823E9F01F92FF921F920F931F9215
S11303001F9385E691E09F938F931F9280E28F93D2
S11303108E010F5F1F4F1F930F930E94D809C801CE
S11303200E94A3050FB6F894DEBF0FBECDBF6AC00E
S113033082E391E00E94A30565C047E050E069E7CD
S113034071E0C8010E94BB09892B09F057C0F8016C
S1130350379620E009C0220F822F880F880F280FBC
S1130360920F20ED290F3196908180ED890F8A300C
S113037090F3992329F081E891E00E94A30542C0FB
S11303808EEF820F8B33E8F01F928CE38F931F92D2
S113039082E08F9384E991E09F938F931F9280E290
S11303A08F938E010F5F1F4F1F930F930E94D809E5
S11303B0C8010E94A3050FB6F894DEBF0FBECDBFDF
S11303C021C02093000110929D021F922F9381EA75
S11303D091E09F938F931F9280E28F938E010F5F22
S11303E01F4F1F930F930E94D809C8010E94A305B1
S11303F00FB6F894DEBF0FBECDBF04C08FEA91E004
S11304000E94A305A3960FB6F894DEBF0FBECDBF1E
S1130410DF91CF911F910F91FF900895EF92FF927A
S11304200F931F93CF93DF93CDB7DEB727970FB604
S1130430F894DEBF0FBECDBFCE0101960E94D0035B
S1130440182FCE0104960E94F907F82E111106C048
S1130450CE0101960E94C900082F01C001E01111CC
S113046004C0FF2021F081E003C081E001C080E0EE
S1130470817041F4602F8E810E94D100811105C0EA
S1130480E12C05C0EE24E39402C0EE24E3941111A0
S113049004C0FF2021F081E003C081E001C080E0BE
S11304A0817039F4602F8C810E94E100811103C0B6
S11304B003C081E001C081E0EE2021F0811104C07D
S11304C081E003C081E001C080E0082F01701123A6
S11304D009F1FF20F9F08F2D0E94A400F82EE92ED7
S11304E0812F0E94BB00EF92FF929F938F938DEC1C
S11304F091E09F938F931F9280E28F938CE792E019
S11305009F938F930E94D8090FB6F894DEBF0FBE55
S1130510CDBFADC01123F1F0EC80FE80812F0E948D
S1130520BB001F92EF921F92FF929F938F9385EDD2
S113053091E09F938F931F9280E28F938CE792E0D8
S11305409F938F930E94D8090FB6F894DEBF0FBE15
S1130550CDBF8DC0FF2009F18F2D0E94A4004B81D7
S11305603A8129819F938F931F924F931F923F93B8
S11305701F922F9387EE91E09F938F931F9280E2B7
S11305808F938CE792E09F938F930E94D8090FB6C4
S1130590F894DEBF0FBECDBF6AC00023F1F1809195
S11305A09C028130D1F5E1101CC02E819A81898191
S11305B01F922F931F929F931F928F938BEF91E023
S11305C09F938F931F9280E28F938CE792E09F9387
S11305D08F930E94D8090FB6F894DEBF0FBECDBF2B
S11305E046C02C819A8189811F922F931F929F93D9
S11305F01F928F9388E192E09F938F931F9280E2E2
S11306008F938CE792E09F938F930E94D8090FB643
S1130610F894DEBF0FBECDBF2AC0002319F08FEBC4
S113062091E002C086EC91E06C815E814B813A815D
S113063029819F938F931F926F931F925F931F92B1
S11306404F931F923F931F922F9385E392E09F93C2
S11306508F931F9280E28F938CE792E09F938F9306
S11306600E94D8090FB6F894DEBF0FBECDBF10921A
S11306709B02002379F080919C0290E001968170A6
S11306809078992324F401978E6F9F6F019680933D
S11306909C0202C010929C028CE792E00E94A30587
S11306A027960FB6F894DEBF0FBECDBFDF91CF9172
S11306B01F910F91FF90EF90089545E552E060E09F
S11306C074E284EF90E00E94B7050E945F0985E020
S11306D08093000110929D0210929C024FE150E021
S11306E06AE672E08CE792E00E94C90910929B02CC
S11306F00895CF93DF93CDB7DEB7C054D1090FB6B9
S1130700F894DEBF0FBECDBF0E9471050E94C805DC
S1130710882359F060E4CE0101960E94CB0588231A
S113072021F0CE0101960E94F1008091E10388231B
S113073079F01092E10380919D028F5F80939D0276
S113074090910001891720F010929D020E940E02E0
S1130750C05CDF4F0FB6F894DEBF0FBECDBFDF9194
S1130760CF910895982F92959F70990F292F220F5A
S1130770220F920F8F70890F08959DEC899F912D00
S1130780112496959695969520E1929FA0011124A7
S1130790990F292F220F220F920F891B842B089562
S11307A0EF92FF920F931F93CF93DF931F92CDB7D6
S11307B0DEB77C0119820E943E0881112BC003E040
S11307C02EE932E041E0BE016F5F7F4F88E60E9470
S11307D06F08882309F10E943E088111FCCF0E9412
S11307E045088823D9F00EE912E0F80180810E94BF
S11307F0B203F7018283F80181810E94B203F701F9
S11308008183F80182818F730E94B203F701808390
S113081080E005C081E003C081E001C081E00F9069
S1130820DF91CF911F910F91FF90EF9008950F9357
S11308301F93CF93DF93EC010E943E0881111AC0ED
S11308400EE912E0F80110828A810E94BD03F801CA
S1130850818389810E94BD03F801828388810E947B
S1130860BD038F73F801838344E0B80188E60E94D6
S11308704C0801C080E0DF91CF911F910F91089542
S11308804091070350E09A012F5F3F4F2F77307854
S1130890332334F42150310920683F6F2F5F3F4FD9
S11308A090910603921741F0FA01E85FFC4F8083B0
S11308B02093070381E0089580E0089520910703C1
S11308C09091060381E0291380E008951F93CF934C
S11308D0DF93EC0110E006C021960E9440048823B7
S11308E059F01F5F88818111F7CF0E945E04811146
S11308F003C081E080930503812FDF91CF911F9185
S11309000895CF9382EA92E00E94660484E792E01D
S11309100E94660486E792E00E946604C0E008C074
S1130920EC2FF0E0EB51FD4F80810E944004CF5F3B
S11309308091E402C817A0F381E080930503CF916E
S11309400895CF93DF93EC010E945E04811109C0E6
S1130950E0910603F0E0E85FFC4F8081888381E04A
S113096001C080E0DF91CF910895CF93DF93EC0134
S11309700E945E04811115C08091060390E0FC0181
S1130980E85FFC4F2081288301968F779078992324
S113099024F4019780689F6F01968093060381E099
S11309A001C080E0DF91CF9108959091E4029032EC
S11309B051F0E92FF0E0EB51FD4F80839F5F90935E
S11309C0E40281E0089580E008959091E40281E0DA
S11309D0911180E00895CF93DF93EC010E94E50428
S11309E081110CC0E091E402E150E093E402F0E0F4
S11309F0EB51FD4F8081888381E001C080E0DF916D
S1130A00CF910895CF93DF93E2EAF2E001900020C2
S1130A10E9F73197E25AF240D091E402ED0FD5E0C4
S1130A20DE0FC0E004C088E00E944004CF5F2C2F9A
S1130A3030E08D2F90E0019628173907A4F381E068
S1130A4080930503DF91CF9108951F93CF93DF9394
S1130A501F92CDB7DEB7182F883011F18D3071F5A4
S1130A600E94E504811138C00E94D5048823A1F1B5
S1130A708091C30281110AC065EE72E084EC92E0B9
S1130A800E94B40981E08093C30203C081E0809393
S1130A90C2020E9402051092E4020E9481041CC05A
S1130AA00E94E504811118C088E00E94EA068823A8
S1130AB099F0CE0101960E94EB040EC08091E402ED
S1130AC08F3138F4812F0E94EA06812F0E94D504C9
S1130AD003C081E08093C2020F90DF91CF911F91F8
S1130AE00895CF93DF931F92CDB7DEB709C0CE012F
S1130AF001960E94D706882319F089810E94250552
S1130B000E94D0068111F3CF8091050381110EC09C
S1130B1016C0CE0101960E94A10489810E94EA06B2
S1130B20882341F0CE0101960E94B5040E945E0420
S1130B30882379F30E945E048111109205030F90BB
S1130B40DF91CF910895CF93DF93EC010E940205CA
S1130B5040E250E0BE0182EA92E00E94C90910928C
S1130B60C1020E94810481E0DF91CF910895CF9367
S1130B70DF93EA019B01AC0160E875E280E090E05C
S1130B800E948D06CE010E94A305DF91CF910895A6
S1130B908091C3020895CF93C091C302CC2311F175
S1130BA06623E9F00097E9F0E4ECF2E0019000201C
S1130BB0E9F73197E45CF2406E1730F41092C30207
S1130BC0FC011082C0E00EC0FF27AF014F5F5F4FF2
S1130BD064EC72E00E94C9091092C30203C0C0E031
S1130BE001C0C0E08C2FCF9108952091AD0330E077
S1130BF02F5F3F4F2F713078332334F42150310964
S1130C00206E3F6F2F5F3F4F9091AE03921305C04C
S1130C1081E08093890380E00895E091AD03F0E0E2
S1130C20E155FC4F80832093AD0381E0089520912A
S1130C30AD039091AE0381E0291380E00895CF9332
S1130C40DF93EC010E941706811117C0E091AE03F7
S1130C50F0E0E155FC4F808188838091AE0390E001
S1130C6001968F719078992324F40197806E9F6F79
S1130C7001968093AE0381E001C080E0DF91CF91C3
S1130C80089520918B0330E02F5F3F4F2F71307810
S1130C90332334F421503109206E3F6F2F5F3F4FCF
S1130CA090918C03921305C081E08093880380E0C7
S1130CB00895E0918B03F0E0E357FC4F8083209389
S1130CC08B0381E0089520918B0390918C0381E044
S1130CD0291380E00895CF93DF93EC010E9463060B
S1130CE0811117C0E0918C03F0E0E357FC4F808141
S1130CF0888380918C0390E001968F71907899237A
S1130D0024F40197806E9F6F019680938C0381E099
S1130D1001C080E0DF91CF910895CF92DF92EF92EE
S1130D20FF920F931F936B017C01CA01B9019701D4
S1130D308601000F111F221F331F000F111F221FD6
S1130D40331FA9019801220F331F441F551F220F7F
S1130D50331F441F551F0E948C09215031091092E2
S1130D60C0003093C5002093C40086E08093C20085
S1130D701092AD031092AE0310928B0310928C0369
S1130D8010928A03109289031092880388E9809351
S1130D90C1001F910F91FF90EF90DF90CF900895C5
S1130DA0F8940E941706789491E089270895CF93C8
S1130DB0DF93EC01F8940E941706882319F07894C5
S1130DC080E005C0CE010E941F06789481E0DF9187
S1130DD0CF910895F8940E944106882329F0E1EC0C
S1130DE0F0E0908190629083789408951F920F921E
S1130DF00FB60F9211242F933F934F935F936F93EA
S1130E007F938F939F93AF93BF93EF93FF938091BF
S1130E10C6000E94F50581E080938A03FF91EF915B
S1130E20BF91AF919F918F917F916F915F914F91FE
S1130E303F912F910F900FBE0F901F9018951F9206
S1130E400F920FB60F9211242F933F934F935F93FA
S1130E506F937F938F939F93AF93BF93EF93FF937E
S1130E60CF93DF931F92CDB7DEB7CE0101960E94D8
S1130E706B06882321F089818093C60005C0E1ECCC
S1130E80F0E080818F7D80830F90DF91CF91FF917F
S1130E90EF91BF91AF919F918F917F916F915F91EE
S1130EA04F913F912F910F900FBE0F901F90189567
S1130EB010928500109284001092800092E090932A
S1130EC0810081110CC01AC080918400909185002A
S1130ED08617970720F01092810082E00895309BD6
S1130EE0F3CF80E008958091840090918500861767
S1130EF0970720F01092810082E008953099F3CF93
S1130F0080E00895CF93DF9380E006C0E82FF0E0FF
S1130F10E153FC4F10828F5F8530C0F3D0E032C0C4
S1130F2060EA70E081E00E945807882331F08091E4
S1130F3084009091850082E02AC060EF70E080E038
S1130F400E945807811122C08091840090918500ED
S1130F50873490F0ED2FF0E027E030E02C1B3109CE
S1130F6081E090E002C0880F991F2A95E2F7E153CF
S1130F70FC4F9081892B8083CF5F01C0C0E0C830D3
S1130F8078F2DF5FD530D0F380E001C082E0DF91FA
S1130F90CF91089587B1816087B988B18E7F88B970
S1130FA02FEF80EE90E0215080409040E1F700C0A8
S1130FB0000087B18E7F87B920EA2A95F1F76CE3A8
S1130FC070E080E00E94580781110FC060EA70E071
S1130FD081E00E94580781110AC060EA70E00E9413
S1130FE05807882329F081E0089581E0089581E07D
S1130FF00895CF93DF93EC01F8940E94CA078823E5
S113100011F0789422C00E948207109281008823F4
S113101011F078941AC0EFECF3E0308181812281E1
S11310209381830F820F890F9481891719F0789423
S113103083E00BC03883EFECF3E081818983828104
S11310408A8383818B83789480E0DF91CF910895A4
S113105084E98093BC001092DD0381E08093E30374
S11310601092DE03089594E99093BC008093DD030D
S113107081E08093E2031092DE0308959091DE03F1
S113108081E0911101C080E00895F8948091E30318
S11310901092E30378940895F8949091DE039923D1
S11310A019F0789480E008958093DC037093DB0357
S11310B06093DA034093D9031092D8031092D703B4
S11310C01092D6031092D5031092D40381E080933A
S11310D0DE0385EA8093BC00789481E008950F9341
S11310E0002319F1F8949091DE03992319F0789470
S11310F080E01CC08093DC037093DB036093DA030D
S11311004093D9031092D8033093D7032093D60386
S11311100093D5031092D40381E08093DE0385EA23
S11311208093BC00789481E001C080E00F91089521
S11311301F920F920FB60F9211242F933F934F9348
S11311405F936F937F938F939F93AF93BF93EF932B
S1131150FF938091B900E82FE87F8E2F90E0FC0187
S11311603897E135F10508F090C0EC5CFF4F0C9422
S1131170AE098091DE03823039F48091DC0390E083
S1131180880F991F816003C08091DC03880F8093CE
S1131190BB0085E88093BC007BC09091D80380910C
S11311A0D903981798F4E091DA03F091DB03809166
S11311B0D80391E0980F9093D803E80FF11D808134
S11311C08093BB0085E88093BC0062C08091D60305
S11311D09091D703892B39F082E08093DE0385EA6E
S11311E08093BC0055C00E94280852C081E00E9430
S11311F033084EC084E08093BC0082E08093DD031A
S113120081E08093E2031092DE0342C08091D50313
S1131210823020F085EC8093BC003AC085E880934E
S1131220BC0036C0E091D603F091D7038091D4037B
S113123091E0980F9093D403E80FF11D8091BB00C7
S113124080832091D40330E08091D50390E001970E
S11312502817390724F485EC8093BC0019C085E86D
S11312608093BC0015C0E091D603F091D703809120
S1131270D40391E0980F9093D403E80FF11D80916B
S1131280BB0080830E94280803C083E00E943308C7
S1131290FF91EF91BF91AF919F918F917F916F914A
S11312A05F914F913F912F910F900FBE0F901F9020
S11312B018950E945D0378940E947903FDCF82E023
S11312C084BD93E095BD99EF97BD80936E007894AB
S11312D008951F920F920FB60F9211242F938F939C
S11312E09F938091DF039091E00301969093E00334
S11312F08093DF03883E934038F01092E00310920D
S1131300DF0381E08093E1039F918F912F910F90F0
S11313100FBE0F901F901895A1E21A2EAA1BBB1B9B
S1131320FD010DC0AA1FBB1FEE1FFF1FA217B307AD
S1131330E407F50720F0A21BB30BE40BF50B661FC3
S1131340771F881F991F1A9469F760957095809587
S113135090959B01AC01BD01CF010895EE0FFF1FD5
S11313600590F491E02D0994FB01DC0101900D92AC
S11313700020E1F70895FB01DC014150504030F0BA
S11313808D910190801919F40020B9F7881B990BED
S11313900895FB01DC014150504048F001900D924A
S11313A00020C9F701C01D9241505040E0F7089554
S11313B0AEE0B0E0EEEDF9E00C94A70C0D891E89C7
S11313C08F89988D26E02C831A83098397FF02C0A6
S11313D080E090E801979E838D83AE01455E5F4F68
S11313E0698D7A8DCE0101960E94080A4D815E8135
S11313F057FD0AC02F813885421753070CF49A0110
S1131400F801E20FF31F10822E96E4E00C94C30C53
S1131410ABE0B0E0EEE0FAE00C94990C6C017B01D7
S11314208A01FC0117821682838181FFCCC1CE011F
S113143001963C01F6019381F70193FD859193FF99
S113144081917F01882309F4BAC1853239F493FD6F
S1131450859193FF81917F01853229F4B60190E053
S11314600E94FF0BE7CF912C212C312CFFE1F315C7
S1131470D8F08B3279F038F4803279F08332A1F4E9
S1131480232D20611DC08D3261F0803369F4232D3A
S1131490216016C0832D8260382EE32DE4603E2E39
S11314A02AC0F32DF8601DC037FC2DC020ED280F95
S11314B02A3040F08E32B9F436FC81C1232D2064E9
S11314C0322E19C036FE06C08AE0989E200D1124E3
S11314D0922E11C0EAE02E9E200D1124222EF32D0F
S11314E0F0623F2E08C08C3621F4832D8068382E9C
S11314F002C0883641F4F70193FD859193FF8191F1
S11315007F018111B3CF982F9F7D9554933028F498
S11315100C5F1F4F9FE399830DC0833631F08337EF
S113152071F0833509F059C021C0F80180818983A5
S11315300E5F1F4F88248394912C530113C02801FC
S1131540F2E04F0E511CF801A080B18036FE03C0BA
S1131550692D70E002C06FEF7FEFC5010E94F40BAC
S11315604C018201F32DFF773F2E16C0280122E0A3
S1131570420E511CF801A080B18036FE03C0692DD3
S113158070E002C06FEF7FEFC5010E94E90B4C01D0
S1131590F32DF0683F2E820133FC1BC0822D90E0B6
S11315A088169906B0F4B60180E290E00E94FF0B21
S11315B02A94F4CFF50137FC859137FE81915F01C0
S11315C0B60190E00E94FF0B21102A9421E0821AB8
S11315D091088114910471F7E8C0843611F08936BA
S11315E041F5F80137FE07C06081718182819381E2
S11315F00C5F1F4F08C060817181072E000C880B9F
S1131600990B0E5F1F4FF32DFF763F2E97FF09C0F6
S113161090958095709561957F4F8F4F9F4FF0689F
S11316203F2E2AE030E0A3010E943B0C882E86184E
S113163045C0853731F4232D2F7EB22E2AE030E0C9
S113164025C0932D997FB92E8F36C1F018F48835B3
S113165079F0B5C0803719F0883721F0B0C0E92F90
S1131660E061BE2EB4FE0DC0FB2DF460BF2E09C098
S113167034FE0AC0292F2660B22E06C028E030E0CE
S113168005C020E130E002C020E132E0F801B7FEFD
S113169007C060817181828193810C5F1F4F06C0F6
S11316A06081718180E090E00E5F1F4FA3010E9472
S11316B03B0C882E8618FB2DFF773F2E36FE0DC07F
S11316C0232D2E7FA22E891458F434FE0BC032FC35
S11316D009C0832D8E7EA82E05C0B82CA32C03C070
S11316E0B82C01C0B92CA4FE0FC0FE01E80DF11DF9
S11316F08081803321F49A2D997EA92E09C0A2FEFF
S113170006C0B394B39404C08A2D867809F0B394C8
S1131710A3FC11C0A0FE06C0B21488F4280C922CBD
S11317209B180EC0B21460F4B60180E290E00E94EF
S1131730FF0BB394F7CFB21418F42B1802C0982CF3
S1131740212CA4FE10C0B60180E390E00E94FF0BA0
S1131750A2FE17C0A1FC03C088E790E002C088E5A0
S113176090E0B6010CC08A2D867859F0A1FE02C023
S11317708BE201C080E2A7FC8DE2B60190E00E94FA
S1131780FF0B891438F4B60180E390E00E94FF0B4C
S11317909A94F7CF8A94F301E80DF11D8081B60184
S11317A090E00E94FF0B8110F5CF222009F442CE75
S11317B0B60180E290E00E94FF0B2A94F6CFF60176
S11317C08681978102C08FEF9FEF2B96E2E10C9404
S11317D0B50CFC010590615070400110D8F780955C
S11317E090958E0F9F1F0895FC01615070400190E9
S11317F00110D8F7809590958E0F9F1F08950F9331
S11318001F93CF93DF93FB01238121FD03C08FEF4F
S11318109FEF2CC022FF16C0468157812481358159
S11318204217530744F4A081B1819D012F5F3F4FBC
S1131830318320838C93268137812F5F3F4F3783F9
S1131840268314C08B01EC01FB010084F185E02D9B
S11318500995892BE1F6D80116968D919C911797DD
S1131860019617969C938E931697CE01DF91CF9194
S11318701F910F910895FA01AA27283051F12031C0
S113188081F1E8946F936E7F6E5F7F4F8F4F9F4F10
S1131890AF4FB1E03ED0B4E03CD0670F781F891F52
S11318A09A1FA11D680F791F8A1F911DA11D6A0F20
S11318B0711D811D911DA11D20D009F468943F91D3
S11318C02AE0269F11243019305D3193DEF6CF01D2
S11318D00895462F4770405D4193B3E00FD0C9F798
S11318E0F6CF462F4F70405D4A3318F0495D31FD05
S11318F04052419302D0A9F7EACFB4E0A695979558
S1131900879577956795BA95C9F70097610571052D
S113191008959B01AC010A2E069457954795379577
S11319202795BA95C9F7620F731F841F951FA01DD1
S113193008952F923F924F925F926F927F928F926F
S11319409F92AF92BF92CF92DF92EF92FF920F934A
S11319501F93CF93DF93CDB7DEB7CA1BDB0B0FB654
S1131960F894DEBF0FBECDBF09942A883988488811
S11319705F846E847D848C849B84AA84B984C884A7
S1131980DF80EE80FD800C811B81AA81B981CE0F9E
S1131990D11D0FB6F894DEBF0FBECDBFED01089583
S10719A0F894FFCFE5
S11319A4054F4B0053696E2073656E736F72005458
S11319B4696D656F7574004572726F722063686532
S11319C4636B73756D004572726F72206465736323
S11319D42E004572726F7220525443005345545F73
S11319E454494D453D00466F726D61746F3A4848E1
S11319F43A4D4D3A535300486F726120696E7661D3
S1131A046C69646100486F72613A253032643A2526
S1131A143032643A25303264005345545F544D3DAA
S1131A2400466F726D61746F3A205345545F544D90
S1131A343D53530052616E676F3A25642D256473D8
S1131A4400496E74657276616C6F3A256473004361
S1131A546D6420646573636F6E6F6369646F0041C2
S1131A644C45525441004E4F524D414C0025732075
S1131A747C202573002573207C20543A256443205C
S1131A84483A25642525005B253032643A253032F2
S1131A94643A253032645D202573005B414C455221
S1131AA454415D20253032643A2530326420546533
S1131AB46D702120256443005B414C455254415DC3
S1131AC420253032643A253032642048756D212053
S1131AD425642525005B253032643A253032643A86
S1131AE4253032645D543A25644320483A256425FC
S1131AF42520257300496E696369616E646F206DE6
S1131B046F6E69746F722E2E2E0053696E20646199
S10F1B14746F73000D00434D443E20002C
S9030000FC
