S01300005450332D477275706F31322E737265639D
S11300000C9434000C9451000C9451000C94510045
S11300100C9451000C9451000C9451000C94510018
S11300200C9451000C9451000C9451000C94510008
S11300300C9451000C9451000C94B5030C94510091
S11300400C9451000C9451000C94F8020C9421036C
S11300500C9451000C9451000C9451000C945100D8
S11300600C9451000C94510011241FBECFEFD8E022
S1130070DEBFCDBF11E0A0E0B1E0E8E2F8E002C0ED
S113008005900D92AA31B107D9F725E0AAE1B1E0B4
S113009001C01D92AB36B207E1F70E9461030C94D4
S11300A012040C94000020915F0230E0A9014F5F1C
S11300B05F4F90915E02941741F0F901E05AFD4FB1
S11300C0808340935F0281E0089580E00895209149
S11300D05F0290915E0281E0291380E008951F93EE
S11300E0CF93DF93EC0110E006C021960E945300E9
S11300F0882359F01F5F88818111F7CF0E94670020
S1130100811103C081E080935D02812FDF91CF9143
S11301101F910895CF938AE191E00E946F008DE0D2
S11301200E94530084E191E00E946F00C0E008C087
S1130130EC2FF0E0E352FE4F80810E945300CF5F2A
S11301408091DC01C817A0F381E080935D02CF9118
S11301500895CF93DF93EC010E946700811109C0D9
S1130160E0915E02F0E0E05AFD4F8081888381E0F7
S113017001C080E0DF91CF910895CF93DF93EC012C
S11301800E94670081110DC080915E0290E0FC0125
S1130190E05AFD4F20812883019680935E0281E01E
S11301A001C080E0DF91CF9108959091DC019038F7
S11301B051F0E92FF0E0E352FE4F80839F5F90936C
S11301C0DC0181E0089580E008959091DC0181E0F4
S11301D0911180E00895CF93DF93EC010E94E50034
S11301E081110CC0E091DC01E150E093DC01F0E00E
S11301F0E352FE4F8081888381E001C080E0DF917B
S1130200CF910895CF93DF93EAE1F1E001900020CC
S1130210E9F73197EA51F140D091DC01ED0FD5E0D7
S1130220DE0FC0E004C088E00E945300CF5F2C2F93
S113023030E08D2F90E0019628173907A4F381E070
S113024080935D02DF91CF9108951F93CF93DF9345
S11302501F92CDB7DEB7182F883029F18D3089F57C
S11302600E94E50081113DC00E94D5008823C9F198
S113027080915B0181110DC04091DC0150E06DED76
S113028071E08CE591E00E94FA0381E080935B01C8
S113029003C081E080935A010E9402011092DC01A4
S11302A00E948A001EC00E94E50081111AC0CE017E
S11302B001960E94EB008823A1F088E00E94EC02E2
S11302C010C08091DC018F3748F4812F0E94D50043
S11302D0882339F0812F0E94EC0203C081E08093CF
S11302E05A010F90DF91CF911F910895CF93DF931F
S11302F01F92CDB7DEB70E94CB0281110AC00DC098
S1130300CE0101960E94D902882319F089810E94A6
S113031025010E94D2028111F3CF80915D028111E7
S11303200EC016C0CE0101960E94A90089810E94C8
S1130330EC02882341F0CE0101960E94BD000E9488
S11303406700882379F30E946700811110925D028F
S11303500F90DF91CF91089540E450E0BC018AE111
S113036091E00E940304109259010E9402010E942C
S11303708A0081E008959B01AC0160E875E280E0A9
S113038090E00E948D0288E191E00E94AC01089502
S113039080915B010895CF93C0915B01CC2311F14F
S11303A06623E9F00097E9F0ECE5F1E00190002024
S11303B0E9F73197EC55F1406E1730F410925B0178
S11303C0FC011082C0E00EC0FF27AF014F5F5F4FFA
S11303D06CE571E00E94030410925B0103C0C0E06D
S11303E001C0C0E08C2FCF9108952091E60430E045
S11303F02F5F3F4F2F773078332334F42150310966
S113040020683F6F2F5F3F4F9091E704921305C020
S113041081E08093E50480E00895E091E604F0E053
S1130420E851FB4F80832093E60481E008952091F6
S1130430E6049091E70481E0291380E00895CF93C6
S1130440DF93EC010E941702811117C0E091E704C9
S1130450F0E0E851FB4F808188838091E70490E0CD
S113046001968F779078992324F4019780689F6F81
S113047001968093E70481E001C080E0DF91CF9191
S113048008952091620430E02F5F3F4F2F7730783A
S1130490332334F42150310920683F6F2F5F3F4FDD
S11304A090916304921305C081E08093610480E01D
S11304B00895E0916204F0E0EC59FB4F80832093AF
S11304C0620481E00895209162049091630481E0C4
S11304D0291380E00895CF93DF93EC010E94630217
S11304E0811117C0E0916304F0E0EC59FB4F808167
S11304F088838091630490E001968F7790789923A4
S113050024F4019780689F6F01968093630481E0CF
S113051001C080E0DF91CF910895CF92DF92EF92F6
S1130520FF920F931F936B017C01CA01B9019701DC
S11305308601000F111F221F331F000F111F221FDE
S1130540331FA9019801220F331F441F551F220F87
S1130550331F441F551F0E94D803215031091092A4
S1130560C5002093C4001092E5041092E404109294
S11305706004E0ECF0E080818D7F808386E08093EE
S1130580C20088E98093C1001F910F91FF90EF9002
S1130590DF90CF900895F8948091E4041092E404DD
S11305A078940895F8940E941702789491E089272A
S11305B00895CF93DF93EC01F8940E9417028823E7
S11305C019F0789480E005C0CE010E941F0278944F
S11305D081E0DF91CF910895F8940E94410288232D
S11305E029F0E1ECF0E09081906290837894089592
S11305F01F920F920FB60F9211242F933F934F9394
S11306005F936F937F938F939F93AF93BF93EF9376
S1130610FF938091C6000E94F50181E08093E40479
S1130620FF91EF91BF91AF919F918F917F916F91C6
S11306305F914F913F912F910F900FBE0F901F909C
S113064018951F920F920FB60F9211242F933F9378
S11306504F935F936F937F938F939F93AF93BF93C6
S1130660EF93FF93CF93DF931F92CDB7DEB70E9432
S1130670630281110DC0CE0101960E946B02882392
S113068061F089818093C60081E08093600405C095
S1130690E1ECF0E080818F7D80830F90DF91CF913A
S11306A0FF91EF91BF91AF919F918F917F916F9146
S11306B05F914F913F912F910F900FBE0F901F901C
S11306C01895CF93DF93CDB7DEB7C455D1090FB6D4
S11306D0F894DEBF0FBECDBF60E074E284EF90E01B
S11306E00E94BB010E94AB0378948CE0E0E0F1E04F
S11306F0DE01AF5BBF4F01900D928A95E1F7FE01D9
S1130700E35BFF4F88E0DF011D928A95E9F710E370
S11307100E94760180916A05882399F010926A05F7
S11307201F5FCE018F5B9F4FFC0101900020E9F712
S11307303197E81BF90B3197E80FF91F10830E94DA
S1130740AC010E94C801882319F360E4CE0101962C
S11307500E94CB01DDCF82E084BD93E095BD99EF8B
S113076097BD80936E00789408951F920F920FB6F0
S11307700F9211242F938F939F93809168059091EA
S1130780690501969093690580936805883E9340B6
S113079038F0109269051092680581E080936A052B
S11307A09F918F912F910F900FBE0F901F901895CE
S11307B0A1E21A2EAA1BBB1BFD010DC0AA1FBB1F61
S11307C0EE1FFF1FA217B307E407F50720F0A21BD3
S11307D0B30BE40BF50B661F771F881F991F1A9440
S11307E069F760957095809590959B01AC01BD016A
S11307F0CF010895FB01DC0102C001900D9241502C
S11308005040D8F70895FB01DC014150504048F0B6
S113081001900D920020C9F701C01D924150504033
S10B0820E0F70895F894FFCFFE
S1130828534547554E444F533A20300000000000CA
S10D083800000000434D443E200080
S9030000FC
