:100000000C9434000C9446000C9446000C9446006A
:100010000C9446000C9446000C9446000C94460048
:100020000C9446000C9446000C9446000C94460038
:100030000C9446000C9446000C9446000C94460028
:100040000C9446000C9446000C9421010C944A0137
:100050000C9446000C9446000C9446000C94460008
:100060000C9446000C94460011241FBECFEFD8E03C
:10007000DEBFCDBF21E0A0E0B1E001C01D92A23102
:10008000B207E1F70E947A010C94D7010C940000AA
:100090002091080130E02F5F3F4F277030783323E5
:1000A00034F421503109286F3F6F2F5F3F4F9091FB
:1000B0000901921305C081E08093010180E0089559
:1000C000E0910801F0E0E65FFE4F80832093080195
:1000D00081E00895E0910901F0E0E65FFE4F808144
:1000E0002091090130E02F5F3F4F27703078332394
:1000F00034F421503109286F3F6F2F5F3F4F209319
:1001000009010895209108019091090181E02913C6
:1001100080E008952091020130E02F5F3F4F23706F
:100120003078332334F4215031092C6F3F6F2F5F27
:100130003F4F90910301921751F0E0910201F0E0DE
:10014000EC5FFE4F80832093020181E0089580E000
:100150000895E0910301F0E0EC5FFE4F8081209173
:10016000030130E02F5F3F4F23703078332334F4A6
:10017000215031092C6F3F6F2F5F3F4F20930301B8
:100180000895209102019091030181E0291380E0FC
:100190000895CF92DF92EF92FF920F931F936B011E
:1001A0007C01CA01B90197018601000F111F221FAE
:1001B000331F000F111F221F331FA9019801220FA7
:1001C000331F441F551F220F331F441F551F0E940A
:1001D000B501215031091092C5002093C40010923E
:1001E000010110920001E0ECF0E080818D7F8083BE
:1001F00086E08093C20088E98093C1001F910F912F
:10020000FF90EF90DF90CF900895F89480910001D7
:1002100010920001789408950E948200811103C019
:100220000E946A00089580E20895F8940E948A006E
:10023000882329F0E1ECF0E090819062908378943B
:1002400008951F920F920FB60F9211242F933F9390
:100250004F935F936F937F938F939F93AF93BF93CE
:10026000EF93FF938091C6000E94480081E0809345
:100270000001FF91EF91BF91AF919F918F917F917D
:100280006F915F914F913F912F910F900FBE0F9003
:100290001F9018951F920F920FB60F9211242F9353
:1002A0003F934F935F936F937F938F939F93AF93FE
:1002B000BF93EF93FF930E94C100811105C00E947C
:1002C000A9008093C60005C0E1ECF0E080818F7D3D
:1002D0008083FF91EF91BF91AF919F918F917F911B
:1002E0006F915F914F913F912F910F900FBE0F90A3
:1002F0001F901895CF93DF93CDB7DEB7C054D109C7
:100300000FB6F894DEBF0FBECDBF20E034E244EF5D
:1003100050E060E875E280E090E00E94C9007894C7
:1003200000E00E940501882371F0FF24F394F00E91
:1003300010E00E940C01E1E0F0E0EC0FFD1FE00F87
:10034000F11F80830F2D002361F3E02FF0E0319740
:1003500081E090E08C0F9D1FE80FF91F80810E94C3
:1003600015018823F1F20150DCCFA1E21A2EAA1B5D
:10037000BB1BFD010DC0AA1FBB1FEE1FFF1FA21755
:10038000B307E407F50720F0A21BB30BE40BF50B52
:10039000661F771F881F991F1A9469F760957095DB
:1003A000809590959B01AC01BD01CF010895F89413
:0203B000FFCF7D
:00000001FF
