:100000000C9485000C94A2000C94A2000C94A20005
:100010000C94A2000C94A2000C94A2000C94A200D8
:100020000C94A2000C94A2000C94A2000C94A200C8
:100030000C94A2000C94A2000C94BB090C94A20096
:100040000C94A2000C94A2000C9448070C94710725
:100050000C94A2000C94A2000C94A2000C94A20098
:100060000C94EA080C94A2000B09970997099709C8
:1000700097099709970997090B099709970997090C
:1000800097099709970997091F09970997099709E8
:1000900097099709970997094809970997099709AF
:1000A00097099709970997091F09970997099709C8
:1000B000970997099709970948099709970997098F
:1000C00097099709970997094C099709970997097B
:1000D000970997099709970958099709970997095F
:1000E000970997099709970948099709970997095F
:1000F0009709970997099709640997099709970933
:100100009709970997099709850911241FBECFEF11
:10011000D8E0DEBFCDBF13E0A0E0B1E0E8E9FAE14E
:1001200002C005900D92A635B107D9F725E0A6E5E6
:10013000B3E001C01D92AF3DB207E1F70E94AB09E9
:100140000C944A0D0C940000813091F028F082301C
:1001500031F0833039F009C081E091E008958FE0FB
:1001600091E0089587E191E0089586E291E0089595
:1001700084E091E00895882319F0813039F003C0BC
:1001800081E091E0089586E291E0089582E391E0B4
:100190000895FC019081975081E09C3008F080E048
:1001A0000895662339F09CEE980F81E09B3040F073
:1001B00080E0089591EF980F81E0983008F080E09A
:1001C0000895662339F09EEC980F81E0953140F058
:1001D00080E0089594EC980F81E0953108F080E07C
:1001E0000895FF920F931F93CF93DF93CDB7DEB7A0
:1001F000C855D1090FB6F894DEBF0FBECDBF8C0134
:1002000049E050E06CE371E00E94350A892B09F067
:100210009CC0D8011996FD0101900020E9F73197A3
:10022000EA1BFB0B389738F0F80183858A3319F401
:1002300086858A3329F086E491E00E94F505EAC0BC
:10024000F801818590ED980F9A30C8F4228520330B
:10025000B0F02A33A0F44485403388F04A3378F470
:100260005585503360F05A3350F43785303338F0C9
:100270003A3328F46089603310F06A3328F087E558
:1002800091E00E94F505C6C090E0C097880F982FB6
:10029000990F990F890F280F10ED120F842F90E0FE
:1002A000C097880F982F990F990F890F580F00ED5D
:1002B000050F832F90E0C097880F982F990F990F03
:1002C000890F680F0F2EF0EDFF2EF02DF60E18316E
:1002D00028F40C3318F4FBE3FF1528F487E591E0CC
:1002E0000E94F50597C067961FAF679768960FAF96
:1002F00068976996FFAE6997CE018A5A9F4F0E9410
:100300006D048823E9F01F92FF921F920F931F92B2
:100310001F9385E691E09F938F931F9285E58F93BE
:100320008E010F5F1F4F1F930F930E94520AC80147
:100330000E94F5050FB6F894DEBF0FBECDBF6AC0B0
:1003400082E391E00E94F50565C047E050E069E76F
:1003500071E0C8010E94350A892B09F057C0F801E5
:10036000379620E009C0220F822F880F880F280FB0
:10037000920F20ED290F3196908180ED890F8A3000
:1003800090F3992329F081E891E00E94F50542C09D
:100390008EEF820F8B33E8F01F928CE38F931F92C6
:1003A00082E08F9384E991E09F938F931F9285E57C
:1003B0008F938E010F5F1F4F1F930F930E94520A5E
:1003C000C8010E94F5050FB6F894DEBF0FBECDBF81
:1003D00021C0209300011092AC031F922F9381EA59
:1003E00091E09F938F931F9285E58F938E010F5F0E
:1003F0001F4F1F930F930E94520AC8010E94F505D8
:100400000FB6F894DEBF0FBECDBF04C08FEA91E0F7
:100410000E94F505C85ADF4F0FB6F894DEBF0FBE35
:10042000CDBFDF91CF911F910F91FF900895DF9283
:10043000EF92FF920F931F93CF93DF93CDB7DEB769
:1004400027970FB6F894DEBF0FBECDBFCE01019641
:100450000E942604182FCE0104960E944B08F82E05
:10046000111106C0CE0101960E94C900D82E02C00B
:10047000DD24D394111104C0FF2021F081E003C0DA
:1004800081E001C080E0817041F46D2D8E810E9479
:10049000D100811105C0E12C05C0EE24E39402C017
:1004A000EE24E394111104C0FF2021F081E003C089
:1004B00081E001C080E0817041F46D2D8C810E944B
:1004C000E100811104C090E003C091E001C091E01F
:1004D000EE2021F0911104C081E003C081E001C051
:1004E00080E0082F0170112309F1FF20F9F08F2D12
:1004F0000E94A400F82EE92E812F0E94BB00EF92EB
:10050000FF929F938F938DED91E09F938F931F9216
:1005100085E58F9386E593E09F938F930E94520A1F
:100520000FB6F894DEBF0FBECDBFF6C01123F1F0B9
:10053000EC80FE80812F0E94BB001F92EF921F92E1
:10054000FF929F938F9385EE91E09F938F931F92DD
:1005500085E58F9386E593E09F938F930E94520ADF
:100560000FB6F894DEBF0FBECDBFD6C0FF2009F195
:100570008F2D0E94A4004B813A8129819F938F93F4
:100580001F924F931F923F931F922F9383E092E00D
:100590009F938F931F9285E58F9386E593E09F93BA
:1005A0008F930E94520A0FB6F894DEBF0FBECDBFE4
:1005B000B3C0002309F486C08091AB03813009F0F9
:1005C00081C0E1102DC091112BC06C815E81DD20B6
:1005D00019F08FEB91E002C086EC91E04B813A81FB
:1005E00029811F926F931F925F939F938F931F9206
:1005F0004F931F923F931F922F9385E292E09F9318
:100600008F931F9285E58F9386E593E09F938F9359
:100610000E94520A0FB6F894DEBF0FBECDBF7CC059
:10062000E11028C05E81DD2019F08FEB91E002C05F
:1006300086EC91E04B813A8129811F925F939F93D1
:100640008F931F924F931F923F931F922F938AE78E
:1006500092E09F938F931F9285E58F9386E593E0B9
:100660009F938F930E94520A0FB6F894DEBF0FBE7D
:10067000CDBF52C05C81DD2019F08FEB91E002C04C
:1006800086EC91E04B813A8129811F925F939F9381
:100690008F931F924F931F923F931F922F938EEB36
:1006A00092E09F938F931F9285E58F9386E593E069
:1006B0009F938F930E94520A0FB6F894DEBF0FBE2D
:1006C000CDBF2AC0002319F08FEC91E002C086ED67
:1006D00091E06C815E814B813A8129819F938F9358
:1006E0001F926F931F925F931F924F931F923F939E
:1006F0001F922F938FEF92E09F938F931F9285E528
:100700008F9386E593E09F938F930E94520A0FB6D2
:10071000F894DEBF0FBECDBF1092AA03002379F07C
:100720008091AB0390E0019681709078992324F436
:1007300001978E6F9F6F01968093AB0302C010925A
:10074000AB0386E593E00E94F50527960FB6F89473
:10075000DEBF0FBECDBFDF91CF911F910F91FF90F4
:10076000EF90DF9008954EE253E060E074E284EF92
:1007700090E00E9409060E94B10985E08093000183
:100780001092AC031092AB0344E550E063E473E0D5
:1007900086E593E00E94430A1092AA030895CF933E
:1007A000DF93CDB7DEB7C054D1090FB6F894DEBFE2
:1007B0000FBECDBF0E94C3050E941A06882359F0C0
:1007C00060E4CE0101960E941D06882321F0CE012F
:1007D00001960E94F1008091DC05882379F0109247
:1007E000DC058091AC038F5F8093AC039091000196
:1007F000891720F01092AC030E941702C05CDF4FF3
:100800000FB6F894DEBF0FBECDBFDF91CF91089534
:10081000982F92959F70990F292F220F220F920FD8
:100820008F70890F08959DEC899F912D11249695C5
:100830009695969520E1929FA0011124990F292F5A
:10084000220F220F920F891B842B0895EF92FF92A3
:100850000F931F93CF93DF931F92CDB7DEB77C0129
:1008600019820E94900881112BC003E02DEA33E029
:1008700041E0BE016F5F7F4F88E60E94C108882378
:1008800009F10E9490088111FCCF0E9497088823EB
:10089000D9F00DEA13E0F80180810E940804F70105
:1008A0008283F80181810E940804F7018183F801A5
:1008B00082818F730E940804F701808380E005C065
:1008C00081E003C081E001C081E00F90DF91CF9112
:1008D0001F910F91FF90EF9008950F931F93CF9367
:1008E000DF93EC010E94900881111AC00DEA13E019
:1008F000F80110828A810E941304F80181838981A2
:100900000E941304F801828388810E9413048F736C
:10091000F801838344E0B80188E60E949E0801C084
:1009200080E0DF91CF911F910F910895482F209182
:10093000420430E0C901019660EF70E00E94DE09D8
:1009400090914104981741F0F901ED5BFB4F408312
:100950008093420481E0089580E00895209142044C
:100960009091410481E0291380E008951F93CF9373
:10097000DF93EC0110E006C021960E9496048823C4
:1009800059F01F5F88818111F7CF0E94AE04811159
:1009900003C081E080934004812FDF91CF911F91AC
:1009A0000895CF9381EB93E00E94B6048DE493E029
:1009B0000E94B6048FE493E00E94B604C0E008C031
:1009C000EC2FF0E0E45DFB4F80810E949604CF5F46
:1009D00080912B04C817A0F381E080934004CF914D
:1009E0000895CF93DF93EC010E94AE04811109C0FA
:1009F000E0914104F0E0ED5BFB4F8081888381E072
:100A000001C080E0DF91CF910895CF93DF93EC0197
:100A10000E94AE04811111C08091410490E0FC015C
:100A2000ED5BFB4F20812883019660EF70E00E9410
:100A3000DE098093410481E001C080E0DF91CF9125
:100A4000089590912B04943151F0E92FF0E0E45D8A
:100A5000FB4F80839F5F90932B0481E0089580E09B
:100A6000089590912B0481E0911180E00895CF9337
:100A7000DF93EC010E94310581110CC0E0912B0441
:100A8000E150E0932B04F0E0E45DFB4F808188832C
:100A900081E001C080E0DF91CF910895CF93DF9393
:100AA000E1EBF3E001900020E9F73197E15BF340DF
:100AB000D0912B04ED0FD5E0DE0FC0E004C088E03C
:100AC0000E949604CF5F2C2F30E08D2F90E001968E
:100AD00028173907A4F381E080934004DF91CF9178
:100AE00008951F93CF93DF931F92CDB7DEB7182FD2
:100AF000883021F18D3089F50E94310581113EC089
:100B0000E0912B04F0E0E45DFB4F1082809116042D
:100B100081110AC06CE274E087E194E00E942E0A21
:100B200081E08093160403C081E0809315040E9445
:100B30004E0510922B040E94D10420C00E94310562
:100B400081111CC0CE0101960E94370588E00E94E9
:100B5000960481E08093400411C080912B0483317E
:100B600050F4812F0E942105812F0E94960481E07C
:100B70008093400403C081E0809315040F90DF91BF
:100B8000CF911F910895CF93DF931F92CDB7DEB71A
:100B900009C0CE0101960E942907882319F0898196
:100BA0000E9471050E9422078111F3CF80914004B9
:100BB00081110EC016C0CE0101960E94F1048981F8
:100BC0000E943C07882341F0CE0101960E94050552
:100BD0000E94AE04882379F30E94AE048111109222
:100BE00040040F90DF91CF910895CF93DF93EC01F4
:100BF0000E944E0544E650E0BE0181EB93E00E9466
:100C0000430A109214040E94D10481E0DF91CF9135
:100C10000895CF93DF93EA019B01AC0160E875E290
:100C200080E090E00E94DF06CE010E94F505DF9192
:100C3000CF910895809116040895CF93C091160422
:100C4000CC2311F16623E9F00097E9F0E7E1F4E045
:100C500001900020E9F73197E751F4406E1730F426
:100C600010921604FC011082C0E00EC0FF27AF01F5
:100C70004F5F5F4F67E174E00E94430A10921604D1
:100C800003C0C0E001C0C0E08C2FCF910895209137
:100C9000B80530E02F5F3F4F2F703078332334F4A6
:100CA00021503109206F3F6F2F5F3F4F9091B90561
:100CB000921305C081E08093340580E00895E091AF
:100CC000B805F0E0E654FA4F80832093B80581E040
:100CD00008952091B8059091B90581E0291380E02D
:100CE0000895CF93DF93EC010E946906811117C02C
:100CF000E091B905F0E0E654FA4F80818883809155
:100D0000B90590E001968F709078992324F40197AB
:100D1000806F9F6F01968093B90581E001C080E0EC
:100D2000DF91CF9108952091360530E02F5F3F4F3E
:100D30002F773078332334F42150310920683F6F06
:100D40002F5F3F4F90913705921305C081E080934C
:100D5000330580E00895E0913605F0E0E85CFA4F55
:100D600080832093360581E0089520913605909187
:100D7000370581E0291380E00895CF93DF93EC01DC
:100D80000E94B506811117C0E0913705F0E0E85CDC
:100D9000FA4F808188838091370590E001968F77A4
:100DA0009078992324F4019780689F6F019680932F
:100DB000370581E001C080E0DF91CF910895CF92A7
:100DC000DF92EF92FF920F931F936B017C01CA0198
:100DD000B90197018601000F111F221F331F000F59
:100DE000111F221F331FA9019801220F331F441F17
:100DF000551F220F331F441F551F0E94F209215017
:100E000031091092C0003093C5002093C40086E0E1
:100E10008093C2001092B8051092B9051092360561
:100E20001092370510923505109234051092330553
:100E300088E98093C1001F910F91FF90EF90DF90A0
:100E4000CF900895F8940E946906789491E08927DC
:100E50000895CF93DF93EC01F8940E9469068823EC
:100E600019F0789480E005C0CE010E947106789454
:100E700081E0DF91CF910895F8940E949306882332
:100E800029F0E1ECF0E090819062908378940895ED
:100E90001F920F920FB60F9211242F933F934F93EF
:100EA0005F936F937F938F939F93AF93BF93EF93D2
:100EB000FF938091C6000E94470681E0809335052C
:100EC000FF91EF91BF91AF919F918F917F916F9122
:100ED0005F914F913F912F910F900FBE0F901F90F8
:100EE00018951F920F920FB60F9211242F933F93D4
:100EF0004F935F936F937F938F939F93AF93BF9322
:100F0000EF93FF93CF93DF931F92CDB7DEB7CE0160
:100F100001960E94BD06882321F089818093C60036
:100F200005C0E1ECF0E080818F7D80830F90DF9140
:100F3000CF91FF91EF91BF91AF919F918F917F9151
:100F40006F915F914F913F912F910F900FBE0F9036
:100F50001F901895109285001092840010928000C6
:100F600092E09093810081110CC01AC0809184009E
:100F7000909185008617970720F01092810082E0FB
:100F80000895309BF3CF80E0089580918400909184
:100F900085008617970720F01092810082E008955F
:100FA0003099F3CF80E00895CF93DF9380E006C0BF
:100FB000E82FF0E0E653FA4F10828F5F8530C0F3E0
:100FC000D0E032C060EA70E081E00E94AA07882386
:100FD00031F0809184009091850082E02AC060EF1A
:100FE00070E080E00E94AA07811122C080918400F5
:100FF00090918500873490F0ED2FF0E027E030E00D
:101000002C1B310981E090E002C0880F991F2A95BE
:10101000E2F7E653FA4F9081892B8083CF5F01C0BE
:10102000C0E0C83078F2DF5FD530D0F380E001C097
:1010300082E0DF91CF91089587B1816087B988B14F
:101040008E7F88B92FEF80EE90E021508040904055
:10105000E1F700C0000087B18E7F87B920EA2A95AA
:10106000F1F76CE370E080E00E94AA0781110FC0E5
:1010700060EA70E081E00E94AA0781110AC060EA7C
:1010800070E00E94AA07882329F081E0089581E09A
:10109000089581E00895CF93DF93EC01F8940E94C6
:1010A0001C08882311F0789422C00E94D407109263
:1010B0008100882311F078941AC0EAECF5E03081C1
:1010C000818122819381830F820F890F94818917F7
:1010D00019F0789483E00BC03883EAECF5E0818165
:1010E000898382818A8383818B83789480E0DF91F6
:1010F000CF91089584E98093BC001092D80581E0D7
:101100008093DE051092D905089594E99093BC0070
:101110008093D80581E08093DD051092D90508956C
:101120009091D90581E0911101C080E00895F89473
:101130008091DE051092DE0578940895F8949091E0
:10114000D905992319F0789480E008958093D70504
:101150007093D6056093D5054093D4051092D305BE
:101160001092D2051092D1051092D0051092CF05A1
:1011700081E08093D90585EA8093BC00789481E072
:1011800008950F93002319F1F8949091D9059923AC
:1011900019F0789480E01CC08093D7057093D60531
:1011A0006093D5054093D4051092D3053093D205B2
:1011B0002093D1050093D0051092CF0581E0809354
:1011C000D90585EA8093BC00789481E001C080E075
:1011D0000F9108951F920F920FB60F9211242F9323
:1011E0003F934F935F936F937F938F939F93AF93AF
:1011F000BF93EF93FF938091B900E82FE87F8E2F84
:1012000090E0FC013897E135F10508F090C0EC5C06
:10121000FF4F0C94140A8091D905823039F48091E3
:10122000D70590E0880F991F816003C08091D70592
:10123000880F8093BB0085E88093BC007BC09091B1
:10124000D3058091D405981798F4E091D505F091D5
:10125000D6058091D30591E0980F9093D305E80FC0
:10126000F11D80818093BB0085E88093BC0062C043
:101270008091D1059091D205892B39F082E080933D
:10128000D90585EA8093BC0055C00E947A0852C0F7
:1012900081E00E9485084EC084E08093BC0082E01B
:1012A0008093D80581E08093DD051092D90542C076
:1012B0008091D005823020F085EC8093BC003AC04C
:1012C00085E88093BC0036C0E091D105F091D2054D
:1012D0008091CF0591E0980F9093CF05E80FF11D15
:1012E0008091BB0080832091CF0530E08091D005B4
:1012F00090E001972817390724F485EC8093BC000F
:1013000019C085E88093BC0015C0E091D105F0912B
:10131000D2058091CF0591E0980F9093CF05E80F0B
:10132000F11D8091BB0080830E947A0803C083E096
:101330000E948508FF91EF91BF91AF919F918F918E
:101340007F916F915F914F913F912F910F900FBEC1
:101350000F901F9018950E94B30378940E94CF03BA
:10136000FDCF82E084BD93E095BD99EF97BD80935A
:101370006E00789408951F920F920FB60F92112469
:101380002F938F939F938091DA059091DB050196BF
:101390009093DB058093DA05883E934038F01092F5
:1013A000DB051092DA0581E08093DC059F918F9137
:1013B0002F910F900FBE0F901F90189597FB072E3F
:1013C00016F4009407D077FD09D00E941A0A07FC92
:1013D00005D03EF4909581959F4F08957095619545
:1013E0007F4F0895A1E21A2EAA1BBB1BFD010DC061
:1013F000AA1FBB1FEE1FFF1FA217B307E407F507C5
:1014000020F0A21BB30BE40BF50B661F771F881FA0
:10141000991F1A9469F760957095809590959B0136
:10142000AC01BD01CF010895EE0FFF1F0590F491AF
:10143000E02D0994AA1BBB1B51E107C0AA1FBB1FCB
:10144000A617B70710F0A61BB70B881F991F5A9550
:10145000A9F780959095BC01CD010895FB01DC01B1
:1014600001900D920020E1F70895FB01DC0141504D
:10147000504030F08D910190801919F40020B9F797
:10148000881B990B0895FB01DC014150504048F046
:1014900001900D920020C9F701C01D9241505040AB
:1014A000E0F70895AEE0B0E0E8E5FAE00C94210D35
:1014B0000D891E898F89988D26E02C831A830983D4
:1014C00097FF02C080E090E801979E838D83AE0174
:1014D000455E5F4F698D7A8DCE0101960E94820A2A
:1014E0004D815E8157FD0AC02F8138854217530711
:1014F0000CF49A01F801E20FF31F10822E96E4E03B
:101500000C943D0DABE0B0E0E8E8FAE00C94130D6C
:101510006C017B018A01FC0117821682838181FFA5
:10152000CCC1CE0101963C01F6019381F70193FDF8
:10153000859193FF81917F01882309F4BAC1853297
:1015400039F493FD859193FF81917F01853229F4D0
:10155000B60190E00E94790CE7CF912C212C312C20
:10156000FFE1F315D8F08B3279F038F4803279F05E
:101570008332A1F4232D20611DC08D3261F08033B0
:1015800069F4232D216016C0832D8260382EE32D4F
:10159000E4603E2E2AC0F32DF8601DC037FC2DC03C
:1015A00020ED280F2A3040F08E32B9F436FC81C18C
:1015B000232D2064322E19C036FE06C08AE0989E84
:1015C000200D1124922E11C0EAE02E9E200D112430
:1015D000222EF32DF0623F2E08C08C3621F4832D8D
:1015E0008068382E02C0883641F4F70193FD85915A
:1015F00093FF81917F018111B3CF982F9F7D9554E7
:10160000933028F40C5F1F4F9FE399830DC08336FE
:1016100031F0833771F0833509F059C021C0F801EA
:10162000808189830E5F1F4F88248394912C5301FE
:1016300013C02801F2E04F0E511CF801A080B180C8
:1016400036FE03C0692D70E002C06FEF7FEFC50169
:101650000E946E0C4C018201F32DFF773F2E16C0C5
:10166000280122E0420E511CF801A080B18036FE14
:1016700003C0692D70E002C06FEF7FEFC5010E94CB
:10168000630C4C01F32DF0683F2E820133FC1BC02C
:10169000822D90E088169906B0F4B60180E290E0C1
:1016A0000E94790C2A94F4CFF50137FC859137FE1E
:1016B00081915F01B60190E00E94790C21102A947B
:1016C00021E0821A91088114910471F7E8C08436F0
:1016D00011F0893641F5F80137FE07C0608171814C
:1016E000828193810C5F1F4F08C060817181072E3A
:1016F000000C880B990B0E5F1F4FF32DFF763F2ECA
:1017000097FF09C090958095709561957F4F8F4F99
:101710009F4FF0683F2E2AE030E0A3010E94B50CF5
:10172000882E861845C0853731F4232D2F7EB22EA2
:101730002AE030E025C0932D997FB92E8F36C1F075
:1017400018F4883579F0B5C0803719F0883721F062
:10175000B0C0E92FE061BE2EB4FE0DC0FB2DF460D9
:10176000BF2E09C034FE0AC0292F2660B22E06C043
:1017700028E030E005C020E130E002C020E132E0A6
:10178000F801B7FE07C060817181828193810C5F8F
:101790001F4F06C06081718180E090E00E5F1F4F97
:1017A000A3010E94B50C882E8618FB2DFF773F2ED3
:1017B00036FE0DC0232D2E7FA22E891458F434FE40
:1017C0000BC032FC09C0832D8E7EA82E05C0B82C1C
:1017D000A32C03C0B82C01C0B92CA4FE0FC0FE017D
:1017E000E80DF11D8081803321F49A2D997EA92E78
:1017F00009C0A2FE06C0B394B39404C08A2D8678B3
:1018000009F0B394A3FC11C0A0FE06C0B21488F482
:10181000280C922C9B180EC0B21460F4B60180E222
:1018200090E00E94790CB394F7CFB21418F42B18FF
:1018300002C0982C212CA4FE10C0B60180E390E0D9
:101840000E94790CA2FE17C0A1FC03C088E790E0BB
:1018500002C088E590E0B6010CC08A2D867859F068
:10186000A1FE02C08BE201C080E2A7FC8DE2B601BE
:1018700090E00E94790C891438F4B60180E390E07E
:101880000E94790C9A94F7CF8A94F301E80DF11D28
:101890008081B60190E00E94790C8110F5CF222062
:1018A00009F442CEB60180E290E00E94790C2A94BD
:1018B000F6CFF6018681978102C08FEF9FEF2B96BE
:1018C000E2E10C942F0DFC01059061507040011075
:1018D000D8F7809590958E0F9F1F0895FC01615059
:1018E000704001900110D8F7809590958E0F9F1F42
:1018F00008950F931F93CF93DF93FB01238121FD65
:1019000003C08FEF9FEF2CC022FF16C04681578186
:10191000248135814217530744F4A081B1819D0190
:101920002F5F3F4F318320838C93268137812F5F38
:101930003F4F3783268314C08B01EC01FB010084E9
:10194000F185E02D0995892BE1F6D80116968D9148
:101950009C911797019617969C938E931697CE019C
:10196000DF91CF911F910F910895FA01AA27283096
:1019700051F1203181F1E8946F936E7F6E5F7F4F5C
:101980008F4F9F4FAF4FB1E03ED0B4E03CD0670FD8
:10199000781F891F9A1FA11D680F791F8A1F911D2B
:1019A000A11D6A0F711D811D911DA11D20D009F47B
:1019B00068943F912AE0269F11243019305D3193BD
:1019C000DEF6CF010895462F4770405D4193B3E0A6
:1019D0000FD0C9F7F6CF462F4F70405D4A3318F04D
:1019E000495D31FD4052419302D0A9F7EACFB4E0FE
:1019F000A6959795879577956795BA95C9F70097B6
:101A00006105710508959B01AC010A2E0694579556
:101A1000479537952795BA95C9F7620F731F841FAD
:101A2000951FA01D08952F923F924F925F926F9243
:101A30007F928F929F92AF92BF92CF92DF92EF925E
:101A4000FF920F931F93CF93DF93CDB7DEB7CA1BDF
:101A5000DB0B0FB6F894DEBF0FBECDBF09942A880A
:101A6000398848885F846E847D848C849B84AA84B2
:101A7000B984C884DF80EE80FD800C811B81AA813F
:101A8000B981CE0FD11D0FB6F894DEBF0FBECDBF0A
:081A9000ED010895F894FFCF69
:101A9800054F4B0053696E2073656E736F72005467
:101AA800696D656F7574004572726F722063686541
:101AB800636B73756D004572726F72206465736332
:101AC8002E004572726F7220525443005345545F82
:101AD80054494D453D00466F726D61746F3A4848F0
:101AE8003A4D4D3A535300486F726120696E7661E2
:101AF8006C69646100486F72613A253032643A2536
:101B08003032643A25303264005345545F544D3DB9
:101B180000466F726D61746F3A205345545F544D9F
:101B28003D53530052616E676F3A25642D256473E7
:101B380000496E74657276616C6F3A256473004370
:101B48006D6420646573636F6E6F6369646F0064AE
:101B58006975726E6F006E6F637475726E6F004197
:101B68004C45525441004E4F524D414C0025732074
:101B78007C202573002573207C20543A256443205B
:101B8800483A25642525207C2045737461646F3AA2
:101B9800202D005B253032643A253032643A2530F6
:101BA80032645D207C202573207C20457374616439
:101BB8006F3A202D005B414C455254415D205B2516
:101BC8003032643A253032643A253032645D20542C
:101BD800656D706572617475726120792068756DC4
:101BE8006564616420667565726120646520726150
:101BF8006E676F202573212056616C6F7265733A8A
:101C0800202564432025642525005B414C4552541A
:101C1800415D205B253032643A253032643A253004
:101C280032645D2054656D706572617475726120EF
:101C380066756572612064652072616E676F202524
:101C480073212056616C6F723A20256443005B4112
:101C58004C455254415D205B253032643A25303280
:101C6800643A253032645D2048756D65646164208E
:101C780066756572612064652072616E676F2025E4
:101C880073212056616C6F723A2025642525005B0C
:101C9800253032643A253032643A253032645D208A
:101CA8007C20543A256443207C20483A2564252525
:101CB800207C2045737461646F3A20257300496E57
:101CC800696369616E646F206D6F6E69746F722EDF
:101CD8002E2E0053696E206461746F73000D0043EB
:061CE8004D443E20000007
:00000001FF
