S01300005450332D477275706F31322E737265639D
S11300000C9434000C9451000C9451000C94510045
S11300100C9451000C9451000C9451000C94510018
S11300200C9451000C9451000C9451000C94510008
S11300300C9451000C9451000C94B2030C94510094
S11300400C9451000C9451000C9408030C9431034B
S11300500C9451000C9451000C9451000C945100D8
S11300600C9451000C94510011241FBECFEFD8E022
S1130070DEBFCDBF11E0A0E0B1E0EEE1F8E002C0E8
S113008005900D92AA30B107D9F722E0AAE0B1E0B9
S113009001C01D92AB30B207E1F70E9471030C94CA
S11300A00D040C94000040916F0150E09A012F5F01
S11300B03F4F2F773078332334F4215031092068AF
S11300C03F6F2F5F3F4F90916E01921741F0FA01FD
S11300D0E059FE4F808320936F0181E0089580E012
S11300E0089520916F0190916E0181E0291380E0C1
S11300F008951F93CF93DF93EC0110E006C021967F
S11301000E945300882359F01F5F88818111F7CF23
S11301100E947100811103C081E080936D01812FE1
S1130120DF91CF911F910895CF938AE091E00E94CF
S1130130790080E091E00E94790082E091E00E94E1
S11301407900C0E008C0EC2FF0E0E35BFE4F808153
S11301500E945300CF5F80914C01C817A0F381E047
S113016080936D01CF910895CF93DF93EC010E94AA
S11301707100811109C0E0916E01F0E0E059FE4F79
S11301808081888381E001C080E0DF91CF91089570
S1130190CF93DF93EC010E947100811115C080910F
S11301A06E0190E0FC01E059FE4F20812883019606
S11301B08F779078992324F4019780689F6F019634
S11301C080936E0181E001C080E0DF91CF910895BA
S11301D090914C01903251F0E92FF0E0E35BFE4F37
S11301E080839F5F90934C0181E0089580E008959F
S11301F090914C0181E0911180E00895CF93DF93B9
S1130200EC010E94F80081110CC0E0914C01E15016
S1130210E0934C01F0E0E35BFE4F8081888381E052
S113022001C080E0DF91CF910895CF93DF93EAE09E
S1130230F1E001900020E9F73197EA50F140D091C4
S11302404C01ED0FD5E0DE0FC0E004C088E00E9451
S11302505300CF5F2C2F30E08D2F90E001962817AC
S11302603907A4F381E080936D01DF91CF91089564
S11302701F93CF93DF931F92CDB7DEB7182F88302B
S113028011F18D3071F50E94F800811138C00E947F
S1130290E8008823A1F180912B0181110AC06DE44B
S11302A071E08CE291E00E94F70381E080932B01DE
S11302B003C081E080932A010E94150110924C0131
S11302C00E9494001CC00E94F800811118C088E0AC
S11302D00E94FC02882399F0CE0101960E94FE0040
S11302E00EC080914C018F3138F4812F0E94FC02A2
S11302F0812F0E94E80003C081E080932A010F90BF
S1130300DF91CF911F910895CF93DF931F92CDB7C3
S1130310DEB78091070281110AC00DC0CE0101969B
S11303200E94E902882319F089810E9438010E9401
S1130330E2028111F3CF80916D0181110EC016C0CC
S1130340CE0101960E94B40089810E94FC02882398
S113035041F0CE0101960E94C8000E9471008823DA
S113036079F30E947100811110926D010F90DF9159
S1130370CF910895CF93DF93EC010E94150140E2E1
S113038050E0BE018AE091E00E94FE031092290130
S11303900E94940081E0DF91CF910895CF93DF9381
S11303A0EA019B01AC0160E875E280E090E00E9404
S11303B0A402CE010E94BA01DF91CF9108958091E9
S11303C02B010895CF93C0912B01CC2311F1662307
S11303D0E9F00097E9F0ECE2F1E001900020E9F7A0
S11303E03197EC52F1406E1730F410922B01FC015E
S11303F01082C0E00EC0FF27AF014F5F5F4F6CE279
S113040071E00E94FE0310922B0103C0C0E001C002
S1130410C0E08C2FCF9108952091FA0130E02F5F36
S11304203F4F27703078332334F421503109286F3B
S11304303F6F2F5F3F4F9091FB01921305C081E006
S11304408093090280E00895E091FA01F0E0E4501D
S1130450FE4F80832093FA0181E008952091FA01F0
S11304609091FB0181E0291380E00895CF93DF93FD
S1130470EC010E942E02811117C0E091FB01F0E013
S1130480E450FE4F808188838091FB0190E00196C7
S113049087709078992324F40197886F9F6F019651
S11304A08093FB0181E001C080E0DF91CF9108954A
S11304B02091F00130E02F5F3F4F277030783323D5
S11304C034F421503109286F3F6F2F5F3F4F9091D3
S11304D0F101921305C081E08093080280E0089541
S11304E0E091F001F0E0EE50FE4F80832093F001A4
S11304F081E008952091F0019091F10181E02913A8
S113050080E00895CF93DF93EC010E947A02811179
S113051017C0E091F101F0E0EE50FE4F8081888336
S11305208091F10190E0019687709078992324F4EA
S11305300197886F9F6F01968093F10181E001C05C
S113054080E0DF91CF910895CF92DF92EF92FF92F6
S11305500F931F936B017C01CA01B90197018601B6
S1130560000F111F221F331F000F111F221F331FE3
S1130570A9019801220F331F441F551F220F331F57
S1130580441F551F0E94D503215031091092C50004
S11305902093C400109209021092070210920602DE
S11305A0E0ECF0E080818D7F808386E08093C20060
S11305B088E98093C1001F910F91FF90EF90DF9025
S11305C0CF900895F8940E942E02789491E08927A0
S11305D00895CF93DF93EC01F8940E942E028823B0
S11305E019F0789480E005C0CE010E943602789418
S11305F081E0DF91CF910895F8940E9458028823F6
S113060029F0E1ECF0E09081906290837894089571
S11306101F920F920FB60F9211242F933F934F9373
S11306205F936F937F938F939F93AF93BF93EF9356
S1130630FF938091C6000E940C0281E08093070220
S1130640FF91EF91BF91AF919F918F917F916F91A6
S11306505F914F913F912F910F900FBE0F901F907C
S113066018951F920F920FB60F9211242F933F9358
S11306704F935F936F937F938F939F93AF93BF93A6
S1130680EF93FF93CF93DF931F92CDB7DEB70E9412
S11306907A0281110DC0CE0101960E948202882344
S11306A061F089818093C60081E08093060205C0D1
S11306B0E1ECF0E080818F7D80830F90DF91CF911A
S11306C0FF91EF91BF91AF919F918F917F916F9126
S11306D05F914F913F912F910F900FBE0F901F90FC
S11306E01895CF93DF93CDB7DEB7C054D1090FB6B9
S11306F0F894DEBF0FBECDBF48E051E060E074E285
S113070084EF90E00E94CE010E94A803789480E2D6
S113071090E09A838983FE0133968EE3DF011D9274
S11307208A95E9F70E94840180910A02882331F0B6
S113073010920A02CE0101960E94BA010E94DF01C2
S1130740882381F360E4CE0101960E94E201EACF9E
S113075082E084BD93E095BD99EF97BD80936E00D0
S1130760789408951F920F920FB60F9211242F932D
S11307708F939F9380910402909105020196909328
S1130780050280930402883E934038F010920502DB
S11307901092040281E080930A029F918F912F911D
S11307A00F900FBE0F901F901895A1E21A2EAA1B4E
S11307B0BB1BFD010DC0AA1FBB1FEE1FFF1FA2170D
S11307C0B307E407F50720F0A21BB30BE40BF50B0A
S11307D0661F771F881F991F1A9469F76095709593
S11307E0809590959B01AC01BD01CF010895FB015B
S11307F0DC0101900D920020E1F70895FB01DC017A
S11308004150504048F001900D920020C9F701C0BA
S11108101D9241505040E0F70895F894FFCF38
S10D081E0D00434D443E2000480045
S9030000FC
