S01300005450322D477275706F31322E737265639E
S11300000C9454000C9471000C9471000C947100C5
S11300100C9471000C9471000C9471000C94710098
S11300200C9471000C9471000C9471000C94710088
S11300300C9471000C9471000C94F8050C947100EC
S11300400C9471000C9471000C9471000C94710068
S11300500C9471000C9471000C9471000C94710058
S11300600C9471000C947100001F000000001F002C
S1130070001F101010101F00001F181818181F0060
S1130080001F1C1C1C1C1F00001F1E1E1E1E1F0008
S1130090001F1F1F1F1F1F0003070F1F0F07030051
S11300A0181C1E1F1E1C180011241FBECFEFD8E001
S11300B0DEBFCDBF11E0A0E0B1E0E2E4FCE002C0AD
S11300C005900D92A836B107D9F721E0A8E6B1E072
S11300D001C01D92A737B207E1F70E9471030C9487
S11300E01F060C94000050E033C08BB180688BB9BC
S11300F08BB18C638BB99BB1E52FF0E0DF01AE5A75
S1130100BE4F8C91809589238BB98AE18A95F1F74A
S113011000C080E014C043B1282F30E0D901AA5AAE
S1130120BE4F9C91942351F4220F331F220F331F8F
S11301302E5B3E4FE20FF31F808108958F5F833063
S113014050F34F9904C0EE5BFE4F848508955F5FC2
S1130150543058F28FEF089584B1867E84B985B106
S1130160896185B98AB18F778AB98BB180688BB977
S11301708AB18C638AB98BB18C638BB90895CF93A0
S1130180DF93EC010E9473008F3F31F48093680188
S11301908093000180E010C090916801891309C028
S11301A090910001891729F088838093000181E0F0
S11301B003C08093680180E0DF91CF91089565B119
S11301C0982F9074492F50E055954795559547952C
S11301D05595479555954795982F9078292F30E058
S11301E0022E232F000C221F330B000C221F331F5F
S11301F0962F997F492B242B25B968B1982F90719C
S1130200492F50E0559547955595479555954795F0
S1130210982F9072292F30E035952795359527959D
S113022035952795962F997F492B242B28B99BB177
S113023092609BB99BB191609BB925ED2A95F1F72A
S113024000009BB19E7F9BB99BB19D7F9BB995EDAF
S11302509A95F1F7000065B120E1829FC001112455
S1130260AC01407455275595479555954795559537
S11302704795559547959C0120783327022E232FC7
S1130280000C221F330B000C221F331F362F397F23
S1130290432B242B25B948B19C0120713327359574
S11302A027953595279535952795807299279595A6
S11302B087959595879595958795942F997F292B63
S11302C0822B88B98BB182608BB98BB181608BB979
S11302D085ED8A95F1F700008BB18E7F8BB98BB1D8
S11302E08D7F8BB995ED9A95F1F70000089565B16E
S11302F0982F9074492F50E05595479555954795FB
S11303005595479555954795982F9078292F30E026
S1130310022E232F000C221F330B000C221F331F2D
S1130320962F997F492B242B25B968B1982F90716A
S1130330492F50E0559547955595479555954795BF
S1130340982F9072292F30E035952795359527956C
S113035035952795962F997F492B242B28B99BB146
S113036091609BB9EFE9FFE03197F1F700C000001D
S11303709BB19E7F9BB9EFE9FFE03197F1F700C095
S1130380000065B1F0E18F9FC0011124AC014074FD
S113039055275595479555954795559547955595A1
S11303A047959C0120783327022E232F000C221F0F
S11303B0330B000C221F331F362F397F432B242B82
S11303C025B948B19C01207133273595279535957A
S11303D027953595279580729927959587959595B5
S11303E0879595958795942F997F292B822B88B98A
S11303F08BB181608BB98FE99FE00197F1F700C061
S113040000008BB18E7F8BB9EFE9FFE03197F1F7F4
S113041000C00000089581E00E947701089582E001
S11304200E94770108950F931F93CF93DF93009752
S113043069F0D62F8C01C0E007C0F801EC0FF11D64
S113044080810E94DF00CF5FCD17B8F3DF91CF9199
S11304501F910F910895623031F0633031F06130B3
S113046029F4805C03C08C5E01C08C5A80680E94B1
S113047077010895EF92FF920F931F93CF93DF9329
S11304807C01862F90E0880F991F880F991F880F91
S1130490991F8064C0E0D0E00DC0F701EC0FFD1F90
S11304A0149101E0080F0E947701812F0E94DF0060
S11304B02196802FC830D10580F3DF91CF911F9111
S11304C00F91FF90EF900895CF93DF932FEF86E77E
S11304D091E0215080409040E1F700C0000085B1D8
S11304E0897F85B988B1897F88B91BB884B1866052
S11304F084B987B1866087B98AB183608AB985B1C6
S1130500897F85B988B1866088B98BB181608BB9E0
S11305108FE99FE00197F1F700C000008BB18E7F57
S11305208BB98FE99FE00197F1F700C0000085B116
S1130530897F85B988B1866088B98BB181608BB9B0
S11305408FE99FE00197F1F700C000008BB18E7F27
S11305508BB98FE99FE00197F1F700C0000085B1E6
S1130560897F85B988B1897F846088B98BB18160BE
S11305708BB98FE99FE00197F1F700C000008BB1C0
S11305808E7F8BB98FE99FE00197F1F700C00000DF
S113059088E20E9477018CE00E94770160E0C0E06D
S11305A00AC0D1E0D60F8C2F90E088599F4F0E944B
S11305B03A02C85F6D2FC034A0F3DF91CF91089544
S11305C088E00E94770108958CE00E9477010895E5
S11305D00E9464020E940B020E940F0260E080E00D
S11305E00E942B0208950F931F93CF938C01C62F63
S11305F060E080E00E942B026FEF6C0FC8010E9444
S1130600130260E080E00E942B02CF911F910F91B2
S113061008950F931F93CF938C01C62F0E940B0252
S113062061E080E00E942B026FEF6C0FC8010E9412
S1130630130260E080E00E942B02CF911F910F9182
S1130640089561E08FE00E942B02E0916901F0E0DF
S1130650E65AFE4F80810E94DF00809169018F5F1E
S113066080936901863011F41092690108950E9403
S1130670E802089580910101882329F00E94E00294
S11306801092010108950E94E40281E08093010127
S1130690089585B1806285B9089585B18F7D85B946
S11306A0089588B1806188B9089588B18F7E88B92A
S11306B0089588B1806288B9089588B18F7D88B91A
S11306C0089584B1806284B987B1806187B987B1A4
S11306D0806287B90E944D030E9455030E945D0306
S11306E008950E94EE050E94AC000E9437030E9408
S11306F0B105809176018823E1F30E94CF05109221
S11307007601F7CF80917201882321F08150809384
S11307107201089580917301882331F08150809390
S113072073018BE380937201089590917201890F94
S1130730809372018C33C0F090917301933688F4E6
S113074029E8829F212D1124229526952770920F46
S1130750909373019CE3299F801911248093720163
S113076008958BE3809372010895CF93DF9300D0B3
S113077000D000D0CDB7DEB7409173018DEC489F17
S1130780212D1124269526952695289F912D1124F7
S1130790969596959695990F392F330F330F930F9E
S11307A0322F391B932F905D9983220F922F990F2B
S11307B0990F290F942F921B905D9A839AE39B8340
S11307C020917201289F812D112486958695869506
S11307D090E3980F9C83880F982F990F990F890F96
S11307E0922F981B905D9D831E8266E0CE01019638
S11307F00E94F30226960FB6F894DEBF0FBECDBF5B
S1130800DF91CF91089510927201109273011092AA
S11308106F0110926E01109271011092700110928A
S11308206D010E94B50308958A3008F051C0E82F85
S11308302091730130E0A901440F551F220F331F8B
S1130840220F331F220F331F420F531F9A01369575
S1130850279536952795ABE7B4E10E941006969547
S11308608795F4E6F89F9001F99F300D1124CA0191
S1130870821B930B209172019DEC299F912D1124D1
S1130880969596959695890F8093730130E0A9010A
S1130890440F551F220F331F220F331F220F331F04
S11308A0420F531F9A0136952795369527950E9436
S11308B0100696958795F89F9001F99F300D1124A5
S11308C0CA01821B930B8E0F809372010E94B503A1
S11308D0089580916B01882389F060E182E191E0C1
S11308E00E9409030E94B50310926B0110926F01DC
S11308F010926E010E944D030E94550380916C0179
S1130900811127C080916A01823441F40E9403045A
S11309101092740181E080936B010895813491F405
S113092090917301911104C090917201992351F037
S113093081E08093740180936B0110926F01109297
S11309406E010895833429F48EE10E9495030E9478
S1130950B503089580916B01882359F00E945D03CB
S11309606FE082E291E00E9409030E94B5031092B5
S11309706B0190916A0180ED890F8A3018F40E940E
S113098014040895923419F40E94030408959334CE
S113099051F0913401F580917201811104C080916C
S11309A073018823C1F080916C01811114C09334C8
S11309B019F48EE10E94950381E080937401809381
S11309C06B0110926F0110926E01109271011092DE
S11309D0700110926D01089580916B018823B1F02C
S11309E060E182E091E00E94090310926B01109291
S11309F06F0110926E01109271011092700181E0EA
S1130A0080936D010E944D030E94550380917001F3
S1130A1090917101019690937101809370010597F3
S1130A20A0F0109271011092700181E090916D011B
S1130A30911180E080936D010E943A030E945D034E
S1130A4080916D0181110E94590380916E019091F2
S1130A506F01019690936F0180936E01C29798F095
S1130A6010927201109273011092740181E08093CC
S1130A706B0110926F0110926E011092710110922D
S1130A80700110926D01089580916B018823C9F063
S1130A9061E181E391E00E9409030E9421030E9425
S1130AA0B50310926B0110926F0110926E011092B7
S1130AB071011092700110926D010E9449030E940D
S1130AC0510380916C01811104C080916A018234C8
S1130AD059F483E08093740181E080936B01109258
S1130AE06F0110926E010895833429F48EE10E94FF
S1130AF095030E94B50380916E0190916F01019658
S1130B0090936F0180936E010A9750F110926F01D8
S1130B1010926E0180917201811104C08091730161
S1130B20882331F00E9482030E94B5030E942103AE
S1130B3080917201811114C080917301811110C0E0
S1130B4082E08093740181E080936B0110926F01C5
S1130B5010926E01109271011092700110926D0149
S1130B600895109274011092730110927201109200
S1130B7071011092700110926F0110926E01109227
S1130B806D0110926C0181E080936B0110926A01F7
S1130B900E9461030E9437030E94B50308951092D6
S1130BA06A018AE691E00E94BF00882359F080918F
S1130BB06A01843439F481E090916C01911180E0F0
S1130BC080936C01E0917401F0E0EE0FFF1FE05A96
S1130BD0FE4F0190F081E02D0995089582E084BDD7
S1130BE093E095BD99EF97BD80936E007894089536
S1130BF01F920F920FB60F9211248F93809175015B
S1130C008F5F80937501843628F01092750181E01E
S1130C10809376018F910F900FBE0F901F901895BF
S1130C20A29FB001B39FC001A39F700D811D112429
S1130C30911DB29F700D811D1124911D0895F8948A
S1050C40FFCFE0
S1130C42FF012020202046494E4953484544202094
S1130C5220002020202020504155534544202020AC
S1130C622000202020454E5445522054494D452011
S1130C72002020202020434F4F4B494E4720202064
S1130C822000313233413435364237383943FF306C
S1130C92FF440820100410080180205F6F4F6F5F2B
S10B0CA2AA044405EC046904F2
S9030000FC
