:100000000C9434000C943E000C943E000C943E0082
:100010000C943E000C943E000C943E000C943E0068
:100020000C943E000C943E000C943E000C943E0058
:100030000C943E000C943E000C943E000C943E0048
:100040000C943E000C943E000C943E000C943E0038
:100050000C943E000C943E000C943E000C943E0028
:100060000C943E000C943E0011241FBECFEFD8E04C
:10007000DEBFCDBF0E9440000C9477000C940000BE
:100080008FEF8AB987B18E7F87B988B1816088B9CF
:10009000309B16C08AEA8BB92FEF81EE94E0215095
:1000A00080409040E1F700C000001BB82FEF81EEC8
:1000B00094E0215080409040E1F700C00000E8CF7C
:1000C0008BB185658BB92FEF81EE94E02150804094
:1000D0009040E1F700C000001BB82FEF81EE94E0E4
:1000E000215080409040E1F700C00000D1CFF8944B
:0200F000FFCF40
:00000001FF
