:100000000C9485000C94A2000C94A2000C94A20005
:100010000C94A2000C94A2000C94A2000C94A200D8
:100020000C94A2000C94A2000C94A2000C94A200C8
:100030000C94A2000C94A2000C94BF090C94A20092
:100040000C94A2000C94A2000C944A070C94730721
:100050000C94A2000C94A2000C94A2000C94A20098
:100060000C94EE080C94A2000F099B099B099B09B4
:100070009B099B099B099B090F099B099B099B09EC
:100080009B099B099B099B0923099B099B099B09C8
:100090009B099B099B099B094C099B099B099B098F
:1000A0009B099B099B099B0923099B099B099B09A8
:1000B0009B099B099B099B094C099B099B099B096F
:1000C0009B099B099B099B0950099B099B099B095B
:1000D0009B099B099B099B095C099B099B099B093F
:1000E0009B099B099B099B094C099B099B099B093F
:1000F0009B099B099B099B0968099B099B099B0913
:100100009B099B099B099B09890911241FBECFEFFD
:10011000D8E0DEBFCDBF13E0A0E0B1E0E0EAFAE155
:1001200002C005900D92A238B107D9F726E0A2E8E7
:10013000B3E001C01D92AB30B207E1F70E94AF09F6
:100140000C944E0D0C940000813091F028F0823018
:1001500031F0833039F009C081E091E008958FE0FB
:1001600091E0089587E191E0089586E291E0089595
:1001700084E091E00895813091F028F0823049F0D8
:10018000833021F009C081E091E008958BE391E094
:10019000089587E491E0089586E291E0089582E36E
:1001A00091E00895FC019081975081E09C3008F027
:1001B00080E00895662339F09CEE980F81E09B3033
:1001C00040F080E0089591EF980F81E0983008F0BA
:1001D00080E00895662339F09EEC980F81E0953118
:1001E00040F080E0089594EC980F81E0953108F09C
:1001F00080E00895FF920F931F93CF93DF93CDB7C5
:10020000DEB7C855D1090FB6F894DEBF0FBECDBF1B
:100210008C0149E050E067E571E00E94390A892BC2
:1002200009F09CC0D8011996FD0101900020E9F762
:100230003197EA1BFB0B389738F0F80183858A3336
:1002400019F486858A3329F081E691E00E94FB0546
:10025000EAC0F801818590ED980F9A30C8F42285A4
:100260002033B0F02A33A0F44485403388F04A3379
:1002700078F45585503360F05A3350F43785303375
:1002800038F03A3328F46089603310F06A3328F08C
:1002900082E791E00E94FB05C6C090E0C097880FFE
:1002A000982F990F990F890F280F10ED120F842F97
:1002B00090E0C097880F982F990F990F890F580FCA
:1002C00000ED050F832F90E0C097880F982F990FAE
:1002D000990F890F680F0F2EF0EDFF2EF02DF60EFF
:1002E000183128F40C3318F4FBE3FF1528F482E7E7
:1002F00091E00E94FB0597C067961FAF67976896CD
:100300000FAF68976996FFAE6997CE018A5A9F4FE3
:100310000E9480048823E9F01F92FF921F920F939E
:100320001F921F9380E891E09F938F931F9285E522
:100330008F938E010F5F1F4F1F930F930E94560ADA
:10034000C8010E94FB050FB6F894DEBF0FBECDBFFB
:100350006AC084E991E00E94FB0565C047E050E077
:100360006EE971E0C8010E94390A892B09F057C073
:10037000F801379620E009C0220F822F880F880FDE
:10038000280F920F20ED290F3196908180ED890F73
:100390008A3090F3992329F086EA91E00E94FB05C8
:1003A00042C08EEF820F8B33E8F01F928CE38F9365
:1003B0001F9282E08F9389EB91E09F938F931F921E
:1003C00085E58F938E010F5F1F4F1F930F930E9440
:1003D000560AC8010E94FB050FB6F894DEBF0FBE97
:1003E000CDBF21C0209300011092D8031F922F93FC
:1003F00086EC91E09F938F931F9285E58F938E01FA
:100400000F5F1F4F1F930F930E94560AC8010E944F
:10041000FB050FB6F894DEBF0FBECDBF04C084ED60
:1004200091E00E94FB05C85ADF4F0FB6F894DEBF7B
:100430000FBECDBFDF91CF911F910F91FF90089517
:10044000DF92EF92FF920F931F93CF93DF93CDB77D
:10045000DEB727970FB6F894DEBF0FBECDBFCE0133
:1004600001960E943904182FCE0104960E94360886
:10047000F82E111106C0CE0101960E94D200D82E8E
:1004800002C0DD24D394111104C0FF2021F081E0CB
:1004900003C081E001C080E0817041F46D2D8E8148
:1004A0000E94DA00811105C0E12C05C0EE24E3941E
:1004B00002C0EE24E394111104C0FF2021F081E07A
:1004C00003C081E001C080E0817041F46D2D8C811A
:1004D0000E94EA00811104C090E003C091E001C0D5
:1004E00091E0EE2021F0911104C081E003C081E091
:1004F00001C080E0082F0170112309F1FF20F9F0FD
:100500008F2D0E94A400F82EE92E812F0E94BB009F
:10051000EF92FF929F938F9382E092E09F938F934D
:100520001F9285E58F9382E893E09F938F930E94BB
:10053000560A0FB6F894DEBF0FBECDBFF6C011232A
:10054000F1F0EC80FE80812F0E94BB001F92EF92A1
:100550001F92FF929F938F938BE092E09F938F93D4
:100560001F9285E58F9382E893E09F938F930E947B
:10057000560A0FB6F894DEBF0FBECDBFD6C0FF201F
:1005800009F18F2D0E94A4004B813A8129819F930C
:100590008F931F924F931F923F931F922F938AE244
:1005A00092E09F938F931F9285E58F9382E893E06B
:1005B0009F938F930E94560A0FB6F894DEBF0FBE2A
:1005C000CDBFB3C0002309F486C08091D70381302A
:1005D00009F081C0E1102DC091112BC06C815E81AA
:1005E000DD2019F084EE91E002C08BEE91E04B81AA
:1005F0003A8129811F926F931F925F939F938F93EC
:100600001F924F931F923F931F922F938DE492E07E
:100610009F938F931F9285E58F9382E893E09F933A
:100620008F930E94560A0FB6F894DEBF0FBECDBF5F
:100630007CC0E11028C05E81DD2019F084EE91E0DD
:1006400002C08BEE91E04B813A8129811F925F932A
:100650009F938F931F924F931F923F931F922F93BD
:1006600083EA92E09F938F931F9285E58F9382E8B0
:1006700093E09F938F930E94560A0FB6F894DEBFC3
:100680000FBECDBF52C05C81DD2019F084EE91E039
:1006900002C08BEE91E04B813A8129811F925F93DA
:1006A0009F938F931F924F931F923F931F922F936D
:1006B00088EE92E09F938F931F9285E58F9382E857
:1006C00093E09F938F930E94560A0FB6F894DEBF73
:1006D0000FBECDBF2AC0002319F084EF91E002C005
:1006E0008BEF91E06C815E814B813A8129819F93F0
:1006F0008F931F926F931F925F931F924F931F923E
:100700003F931F922F938AE293E09F938F931F92C0
:1007100085E58F9382E893E09F938F930E94560A1A
:100720000FB6F894DEBF0FBECDBF1092D6030023E4
:1007300079F08091D70390E00196817090789923A9
:1007400024F401978E6F9F6F01968093D70302C0A8
:100750001092D70382E893E00E94FB0527960FB61C
:10076000F894DEBF0FBECDBFDF91CF911F910F91E7
:10077000FF90EF90DF9008954AE553E060E074E267
:1007800084EF90E00E940F060E94B50920EA36E847
:1007900041E050E060E074E284EF90E00E9479086C
:1007A00085E0809300011092D8031092D70344E5AE
:1007B00050E06FE673E082E893E00E94470A1092EF
:1007C000D6030895CF93DF93CDB7DEB7C054D109D8
:1007D0000FB6F894DEBF0FBECDBF0E94C9050E94C0
:1007E0002006882359F060E4CE0101960E9423067A
:1007F000882321F0CE0101960E94FA00809109061B
:10080000882379F0109209068091D8038F5F809336
:10081000D80390910001891720F01092D8030E940C
:100820002002C05CDF4F0FB6F894DEBF0FBECDBF15
:10083000DF91CF910895982F92959F70990F292F4E
:10084000220F220F920F8F70890F08959DEC899FC0
:10085000912D112496959695969520E1929FA00151
:100860001124990F292F220F220F920F891B842BFD
:100870000895EF92FF920F931F93CF93DF931F92F0
:10088000CDB7DEB77C0119820E94940881112BC07C
:1008900003E029ED33E041E0BE016F5F7F4F88E662
:1008A0000E94C508882309F10E9494088111FCCF99
:1008B0000E949B088823D9F009ED13E0F80180819C
:1008C0000E941B04F7018283F80181810E941B04AE
:1008D000F7018183F80182818F730E941B04F70165
:1008E000808380E005C081E003C082E001C083E036
:1008F0000F90DF91CF911F910F91FF90EF9008958E
:100900000F931F93CF93DF93EC010E949408811102
:100910001AC009ED13E0F80110828A810E942604B2
:10092000F801818389810E942604F80182838881ED
:100930000E9426048F73F801838344E0B80188E69F
:100940000E94A20801C080E0DF91CF911F910F911A
:100950000895482F20916E0430E0C901019660EFA0
:1009600070E00E94E20990916D04981741F0F9013E
:10097000E159FB4F408380936E0481E0089580E04D
:10098000089520916E0490916D0481E0291380E018
:1009900008951F93CF93DF93EC0110E006C02196DA
:1009A0000E94A904882359F01F5F88818111F7CF25
:1009B0000E94C104811103C081E080936C04812FE7
:1009C000DF91CF911F910895CF938DED93E00E9419
:1009D000C90489E793E00E94C9048BE793E00E9471
:1009E000C904C0E008C0EC2FF0E0E85AFB4F80815A
:1009F0000E94A904CF5F80915704C817A0F381E03B
:100A000080936C04CF910895CF93DF93EC010E9403
:100A1000C104811109C0E0916D04F0E0E159FB4F80
:100A20008081888381E001C080E0DF91CF910895CB
:100A3000CF93DF93EC010E94C104811111C080911A
:100A40006D0490E0FC01E159FB4F20812883019661
:100A500060EF70E00E94E20980936D0481E001C0C4
:100A600080E0DF91CF91089590915704943151F037
:100A7000E92FF0E0E85AFB4F80839F5F9093570483
:100A800081E0089580E008959091570481E09111EC
:100A900080E00895CF93DF93EC010E94440581111B
:100AA0000CC0E0915704E150E0935704F0E0E85A9D
:100AB000FB4F8081888381E001C080E0DF91CF918E
:100AC0000895CF93DF93EDEDF3E001900020E9F777
:100AD0003197ED5DF340D0915704ED0FD5E0DE0F77
:100AE000C0E004C088E00E94A904CF5F2C2F30E052
:100AF0008D2F90E0019628173907A4F381E08093A9
:100B00006C04DF91CF910895CF93DF931F92CDB7FF
:100B1000DEB78A30D1F18D3019F0883061F522C00E
:100B20000E944405811131C0E0915704F0E0E85A79
:100B3000FB4F10828091420481110AC068E574E085
:100B400083E494E00E94320A81E08093420403C06F
:100B500081E0809341040E946105109257040E9435
:100B6000E40413C00E94440581110FC0CE01019618
:100B70000E944A050AC090915704933118F40E94CC
:100B8000340503C081E0809341040F90DF91CF9141
:100B90000895CF93DF931F92CDB7DEB709C0CE0182
:100BA00001960E942B07882319F089810E948405F1
:100BB0000E9424078111F3CF80916C0481110EC033
:100BC00016C0CE0101960E94040589810E943E074D
:100BD000882341F0CE0101960E9418050E94C104AD
:100BE000882379F30E94C104811110926C040F9044
:100BF000DF91CF910895CF93DF93EC010E946105BF
:100C000044E650E0BE018DED93E00E94470A109249
:100C100040040E94E40481E0DF91CF910895CF93D6
:100C2000DF93EA019B01AC0160E875E280E090E0AF
:100C30000E94E106CE010E94FB05DF91CF9108954D
:100C4000809142040895CF93C0914204CC23F1F0E7
:100C50006623C9F00097C9F0E3E4F4E001900020B6
:100C6000E9F73197E354F4406E1730F410924204E0
:100C7000FC011082C0E00AC063E474E00E94320A02
:100C80001092420403C0C0E001C0C0E08C2FCF919D
:100C900008952091E40530E02F5F3F4F2F703078AA
:100CA000332334F421503109206F3F6F2F5F3F4FC2
:100CB0009091E505921305C081E08093600580E086
:100CC0000895E091E405F0E0EA51FA4F8083209323
:100CD000E40581E008952091E4059091E50581E027
:100CE000291380E00895CF93DF93EC010E946B06F7
:100CF000811117C0E091E505F0E0EA51FA4F8081DB
:100D000088838091E50590E001968F709078992313
:100D100024F40197806F9F6F01968093E50581E031
:100D200001C080E0DF91CF9108952091620530E00D
:100D30002F5F3F4F2F773078332334F42150310920
:100D400020683F6F2F5F3F4F90916305921305C05E
:100D500081E080935F0580E00895E0916205F0E016
:100D6000EC59FA4F80832093620581E00895209129
:100D700062059091630581E0291380E00895CF9387
:100D8000DF93EC010E94B706811117C0E091630563
:100D9000F0E0EC59FA4F808188838091630590E000
:100DA00001968F779078992324F4019780689F6F3C
:100DB00001968093630581E001C080E0DF91CF91CF
:100DC0000895CF92DF92EF92FF920F931F936B01E2
:100DD0007C01CA01B90197018601000F111F221F72
:100DE000331F000F111F221F331FA9019801220F6B
:100DF000331F441F551F220F331F441F551F0E94CE
:100E0000F609215031091092C0003093C50020939B
:100E1000C40086E08093C2001092E4051092E505BC
:100E200010926205109263051092610510926005A0
:100E300010925F0588E98093C1001F910F91FF9088
:100E4000EF90DF90CF900895F8940E946B0678940D
:100E500091E089270895CF93DF93EC01F8940E94E5
:100E60006B06882319F0789480E005C0CE010E94BB
:100E70007306789481E0DF91CF910895F8940E94F1
:100E80009506882329F0E1ECF0E090819062908350
:100E9000789408951F920F920FB60F9211242F93FA
:100EA0003F934F935F936F937F938F939F93AF93F2
:100EB000BF93EF93FF938091C6000E94490681E0A3
:100EC00080936105FF91EF91BF91AF919F918F91B9
:100ED0007F916F915F914F913F912F910F900FBE36
:100EE0000F901F9018951F920F920FB60F9211241A
:100EF0002F933F934F935F936F937F938F939F9322
:100F0000AF93BF93EF93FF93CF93DF931F92CDB730
:100F1000DEB7CE0101960E94BF06882321F08981A9
:100F20008093C60005C0E1ECF0E080818F7D808376
:100F30000F90DF91CF91FF91EF91BF91AF919F9172
:100F40008F917F916F915F914F913F912F910F9072
:100F50000FBE0F901F9018950EC096B1292F2170CB
:100F600030E0682F70E02617370761F095E09A951A
:100F7000F1F70000BA01AB0141505109672B69F745
:100F800082E0089580E0089587B1816087B988B1D3
:100F90008E7F88B92FEF80EE90E021508040904006
:100FA000E1F700C0000087B18E7F87B920EA2A955B
:100FB000F1F76CE370E080E00E94AC0781110FC094
:100FC00060EA70E081E00E94AC0781110AC060EA2B
:100FD00070E00E94AC07882329F081E0089581E049
:100FE000089581E00895CF93DF9380E006C0E82F55
:100FF000F0E0EA50FA4F10828F5F8530C0F3D0E006
:101000002BC060EA70E081E00E94AC07811128C02B
:1010100007C095E09A95F1F700008F5F883710F5CB
:101020003099F7CF883290F0ED2FF0E027E030E0F4
:101030002C1B310981E090E002C0880F991F2A958E
:10104000E2F7EA50FA4F9081892B8083CF5F01C08D
:10105000C0E0C830B0F2DF5FD530D0F380E003C02D
:1010600082E001C082E0DF91CF910895CF93DF93BA
:10107000EC01F8940E94C407882311F0789420C0F2
:101080000E94F307882311F078941AC0E6EFF5E088
:101090003081818122819381830F820F890F948116
:1010A000891719F0789483E00BC03883E6EFF5E0F8
:1010B0008181898382818A8383818B83789480E094
:1010C000DF91CF91089584E98093BC0010920406CB
:1010D00081E080930A0610920506089594E99093A2
:1010E000BC008093040681E08093080610920506F8
:1010F00008951092B9000E94F609DA01C9014097DB
:10110000A109B109B695A795979587958093B800E1
:1011100010920A0610920806109205061092040614
:1011200084E08093BC0008959091050681E09111C0
:1011300001C080E00895F89480910A0610920A0692
:1011400078940895F89490910506992319F078946D
:1011500080E0089580930306709302066093010671
:10116000409300061092FF051092FE051092FD05B7
:101170001092FC051092FB0581E08093050685EA3C
:101180008093BC00789481E008950F93002319F1B7
:10119000F89490910506992319F0789480E01CC08A
:1011A0008093030670930206609301064093000645
:1011B0001092FF053093FE052093FD050093FC057A
:1011C0001092FB0581E08093050685EA8093BC00C0
:1011D000789481E001C080E00F9108951F920F92F2
:1011E0000FB60F9211242F933F934F935F936F93FA
:1011F0007F938F939F93AF93BF93EF93FF938091D0
:10120000B900E82FE87F8E2F90E0FC013897E13598
:10121000F10508F090C0EC5CFF4F0C94180A809127
:101220000506823039F48091030690E0880F991FFB
:10123000816003C080910306880F8093BB0085E81E
:101240008093BC007BC09091FF05809100069817A9
:1012500098F4E0910106F09102068091FF0591E07B
:10126000980F9093FF05E80FF11D80818093BB00DC
:1012700085E88093BC0062C08091FD059091FE05D9
:10128000892B39F082E08093050685EA8093BC00C3
:1012900055C00E94630852C081E00E946E084EC093
:1012A00084E08093BC0082E08093040681E0809318
:1012B00008061092050642C08091FC05823020F09D
:1012C00085EC8093BC003AC085E88093BC0036C0B2
:1012D000E091FD05F091FE058091FB0591E0980FEE
:1012E0009093FB05E80FF11D8091BB008083209156
:1012F000FB0530E08091FC0590E001972817390745
:1013000024F485EC8093BC0019C085E88093BC0070
:1013100015C0E091FD05F091FE058091FB0591E07F
:10132000980F9093FB05E80FF11D8091BB0080831F
:101330000E94630803C083E00E946E08FF91EF9152
:10134000BF91AF919F918F917F916F915F914F91DD
:101350003F912F910F900FBE0F901F9018950E94F4
:10136000BC0378940E94E203FDCF82E084BD93E049
:1013700095BD99EF97BD80936E00789408951F9264
:101380000F920FB60F9211242F938F939F938091FA
:10139000060690910706019690930706809306062D
:1013A000883E934038F0109207061092060681E0BE
:1013B000809309069F918F912F910F900FBE0F90F0
:1013C0001F90189597FB072E16F4009407D077FD11
:1013D00009D00E941E0A07FC05D03EF49095819525
:1013E0009F4F0895709561957F4F0895A1E21A2E41
:1013F000AA1BBB1BFD010DC0AA1FBB1FEE1FFF1FB9
:10140000A217B307E407F50720F0A21BB30BE40B08
:10141000F50B661F771F881F991F1A9469F760954F
:101420007095809590959B01AC01BD01CF01089509
:10143000EE0FFF1F0590F491E02D0994AA1BBB1B32
:1014400051E107C0AA1FBB1FA617B70710F0A61BC4
:10145000B70B881F991F5A95A9F780959095BC01E5
:10146000CD010895FB01DC0101900D920020E1F710
:101470000895FB01DC014150504030F08D91019006
:10148000801919F40020B9F7881B990B0895FB0106
:10149000DC014150504048F001900D920020C9F706
:1014A00001C01D9241505040E0F70895AEE0B0E019
:1014B000ECE5FAE00C94250D0D891E898F89988D35
:1014C00026E02C831A83098397FF02C080E090E80E
:1014D00001979E838D83AE01455E5F4F698D7A8D46
:1014E000CE0101960E94860A4D815E8157FD0AC099
:1014F0002F813885421753070CF49A01F801E20F47
:10150000F31F10822E96E4E00C94410DABE0B0E0A6
:10151000ECE8FAE00C94170D6C017B018A01FC01E8
:1015200017821682838181FFCCC1CE0101963C01D6
:10153000F6019381F70193FD859193FF81917F01DE
:10154000882309F4BAC1853239F493FD859193FF5C
:1015500081917F01853229F4B60190E00E947D0CD3
:10156000E7CF912C212C312CFFE1F315D8F08B32F1
:1015700079F038F4803279F08332A1F4232D2061A0
:101580001DC08D3261F0803369F4232D216016C0B7
:10159000832D8260382EE32DE4603E2E2AC0F32D89
:1015A000F8601DC037FC2DC020ED280F2A3040F018
:1015B0008E32B9F436FC81C1232D2064322E19C03D
:1015C00036FE06C08AE0989E200D1124922E11C08E
:1015D000EAE02E9E200D1124222EF32DF0623F2EE4
:1015E00008C08C3621F4832D8068382E02C08836DE
:1015F00041F4F70193FD859193FF81917F01811162
:10160000B3CF982F9F7D9554933028F40C5F1F4FD4
:101610009FE399830DC0833631F0833771F08335B2
:1016200009F059C021C0F801808189830E5F1F4FE6
:1016300088248394912C530113C02801F2E04F0EAB
:10164000511CF801A080B18036FE03C0692D70E006
:1016500002C06FEF7FEFC5010E94720C4C01820146
:10166000F32DFF773F2E16C0280122E0420E511CB9
:10167000F801A080B18036FE03C0692D70E002C081
:101680006FEF7FEFC5010E94670C4C01F32DF068EE
:101690003F2E820133FC1BC0822D90E088169906F4
:1016A000B0F4B60180E290E00E947D0C2A94F4CF61
:1016B000F50137FC859137FE81915F01B60190E01D
:1016C0000E947D0C21102A9421E0821A9108811435
:1016D000910471F7E8C0843611F0893641F5F801BC
:1016E00037FE07C060817181828193810C5F1F4F3B
:1016F00008C060817181072E000C880B990B0E5F6A
:101700001F4FF32DFF763F2E97FF09C090958095D0
:10171000709561957F4F8F4F9F4FF0683F2E2AE065
:1017200030E0A3010E94B90C882E861845C0853789
:1017300031F4232D2F7EB22E2AE030E025C0932DE8
:10174000997FB92E8F36C1F018F4883579F0B5C07D
:10175000803719F0883721F0B0C0E92FE061BE2E44
:10176000B4FE0DC0FB2DF460BF2E09C034FE0AC0CC
:10177000292F2660B22E06C028E030E005C020E107
:1017800030E002C020E132E0F801B7FE07C060811E
:101790007181828193810C5F1F4F06C060817181CE
:1017A00080E090E00E5F1F4FA3010E94B90C882ECD
:1017B0008618FB2DFF773F2E36FE0DC0232D2E7F82
:1017C000A22E891458F434FE0BC032FC09C0832DBC
:1017D0008E7EA82E05C0B82CA32C03C0B82C01C047
:1017E000B92CA4FE0FC0FE01E80DF11D80818033ED
:1017F00021F49A2D997EA92E09C0A2FE06C0B394A9
:10180000B39404C08A2D867809F0B394A3FC11C068
:10181000A0FE06C0B21488F4280C922C9B180EC0AF
:10182000B21460F4B60180E290E00E947D0CB394A3
:10183000F7CFB21418F42B1802C0982C212CA4FE58
:1018400010C0B60180E390E00E947D0CA2FE17C09C
:10185000A1FC03C088E790E002C088E590E0B601F3
:101860000CC08A2D867859F0A1FE02C08BE201C01F
:1018700080E2A7FC8DE2B60190E00E947D0C891405
:1018800038F4B60180E390E00E947D0C9A94F7CF83
:101890008A94F301E80DF11D8081B60190E00E9469
:1018A0007D0C8110F5CF222009F442CEB60180E2F2
:1018B00090E00E947D0C2A94F6CFF60186819781F4
:1018C00002C08FEF9FEF2B96E2E10C94330DFC01E9
:1018D0000590615070400110D8F7809590958E0F5B
:1018E0009F1F0895FC016150704001900110D8F7CE
:1018F000809590958E0F9F1F08950F931F93CF9300
:10190000DF93FB01238121FD03C08FEF9FEF2CC0EC
:1019100022FF16C046815781248135814217530723
:1019200044F4A081B1819D012F5F3F4F318320831B
:101930008C93268137812F5F3F4F3783268314C0D6
:101940008B01EC01FB010084F185E02D0995892BC9
:10195000E1F6D80116968D919C91179701961796EE
:101960009C938E931697CE01DF91CF911F910F918B
:101970000895FA01AA27283051F1203181F1E89425
:101980006F936E7F6E5F7F4F8F4F9F4FAF4FB1E072
:101990003ED0B4E03CD0670F781F891F9A1FA11D6D
:1019A000680F791F8A1F911DA11D6A0F711D811D6E
:1019B000911DA11D20D009F468943F912AE0269F33
:1019C00011243019305D3193DEF6CF010895462F92
:1019D0004770405D4193B3E00FD0C9F7F6CF462F73
:1019E0004F70405D4A3318F0495D31FD40524193DC
:1019F00002D0A9F7EACFB4E0A69597958795779599
:101A00006795BA95C9F700976105710508959B011F
:101A1000AC010A2E06945795479537952795BA95A8
:101A2000C9F7620F731F841F951FA01D08952F9281
:101A30003F924F925F926F927F928F929F92AF925E
:101A4000BF92CF92DF92EF92FF920F931F93CF93AB
:101A5000DF93CDB7DEB7CA1BDB0B0FB6F894DEBF42
:101A60000FBECDBF09942A88398848885F846E8468
:101A70007D848C849B84AA84B984C884DF80EE80B2
:101A8000FD800C811B81AA81B981CE0FD11D0FB6BB
:101A9000F894DEBF0FBECDBFED010895F894FFCFDF
:101AA000054F4B0053696E2073656E736F7200545F
:101AB000696D656F7574004572726F722063686539
:101AC000636B73756D004572726F7220646573632A
:101AD0002E00525443204255535900525443204E35
:101AE0004F54444F4E4500525443204E4F20494ED0
:101AF00049434941444F005345545F54494D453D86
:101B000000466F726D61746F3A48483A4D4D3A53D2
:101B10005300486F726120696E76616C6964610080
:101B2000486F72613A253032643A253032643A2582
:101B3000303264004572726F722052544300534534
:101B4000545F544D3D00466F726D61746F3A20537F
:101B500045545F544D3D53530052616E676F3A25B3
:101B6000642D25647300496E74657276616C6F3AFA
:101B700025647300436D6420646573636F6E6F63E7
:101B800069646F00646975726E6F006E6F6374755F
:101B9000726E6F00414C45525441004E4F524D41C0
:101BA0004C000A2573207C202573000A2573207CB5
:101BB00020543A25644320483A25642525207C207A
:101BC00045737461646F3A202D000A5B25303264DE
:101BD0003A253032643A253032645D207C2025730A
:101BE000207C2045737461646F3A202D000A5B41AC
:101BF0004C455254415D205B253032643A253032E9
:101C0000643A253032645D2054656D70657261748C
:101C100075726120792068756D65646164206675F0
:101C20006572612064652072616E676F2025732183
:101C30002056616C6F7265733A20256443202564D9
:101C40002525000A5B414C455254415D205B2530FF
:101C500032643A253032643A253032645D2054656E
:101C60006D70657261747572612066756572612050
:101C700064652072616E676F202573212056616C48
:101C80006F723A20256443000A5B414C455254412F
:101C90005D205B253032643A253032643A2530329B
:101CA000645D2048756D6564616420667565726168
:101CB0002064652072616E676F2025732120566154
:101CC0006C6F723A2025642525000A5B253032644A
:101CD0003A253032643A253032645D207C20543A13
:101CE000256443207C20483A25642525207C204516
:101CF000737461646F3A20257300496E696369618A
:101D00006E646F206D6F6E69746F722E2E2E00538D
:101D1000696E206461746F73000D00434D443E2072
:021D20000000C1
:00000001FF
